:020000040800F2
:1000000098C3002025040008490400084B04000898
:100010008D5400084F04000851040008000000003F
:100020000000000000000000000000005304000871
:100030005504000800000000570400085904000897
:100040005B0400085B0400085B0400085B04000814
:100050005B0400085B0400085B0400085B04000804
:100060005B0400085B0400085B0400085B040008F4
:100070005B0400085B0400085B0400085B040008E4
:100080005B0400085B0400085B0400085B040008D4
:100090005B0400085B0400085B0400085B040008C4
:1000A0005B0400085B0400085B0400085B040008B4
:1000B0005B0400085B040008A16600085B040008FC
:1000C0005B0400085B0400085B0400085B04000894
:1000D0005B040008E56900085B0400085B04000895
:1000E0005B0400085B040008000000005B040008DB
:1000F0005B0400085B0400085B0400085B04000864
:100100005B0400085B040008B56700085B04000896
:100110005B0400085B0400085B0400085B04000843
:100120005B0400085B0400085B0400085B04000833
:100130005B0400085B0400085B0400085B04000823
:1001400000000000000000000000000000000000AF
:100150005B0400085B0400085B0400085B04000803
:100160005B0400085B0400085B0400085B040008F3
:100170005B0400085B0400085B040008000000004A
:100180005B0400085B0400085B0400085B040008D3
:100190005B0400085B0400085B0400085B040008C3
:1001A0005B0400085B0400085B0400085B040008B3
:1001B0005B0400085B0400085B0400085B040008A3
:1001C0005B0400085B0400085B0400085B04000893
:1001D0005B0400085B0400085B0400085B04000883
:1001E0005B0400085B0400085B0400085B04000873
:1001F0005B0400085B0400085B0400085B04000863
:100200005B0400085B0400085B0400085B04000852
:100210005B0400085B0400085B0400085B04000842
:100220005B0400085B0400085B0400080000000099
:100230005B0400085B040008000000005B04000889
:100240005B0400085B0400085B0400085B04000812
:100250005B0400085B0400085B0400085B04000802
:100260005B0400085B0400085B0400085B040008F2
:100270005B0400085B0400085B0400080000000049
:100280005B0400085B0400085B0400080000000039
:10029000000000005B04000800F002F800F0B2F873
:1002A0000AA090E8000C82448344AAF10107DA45D1
:1002B00001D100F0A7F8AFF2090EBAE80F0013F071
:1002C000010F18BFFB1A43F0010318479083000089
:1002D000D08300000A444FF0000C10F8013B13F0EB
:1002E000070408BF10F8014B1D1108BF10F8015B8F
:1002F000641E05D010F8016B641E01F8016BF9D182
:1003000013F0080F1EBF10F8014BAD1C0C1B09D1D8
:100310006D1E58BF01F801CBFAD505E014F8016B4A
:1003200001F8016B6D1EF9D59142D6D370470000DC
:100330000023002400250026103A28BF78C1FBD8EE
:10034000520728BF30C148BF0B6070476E2900F0CC
:10035000BA85702901F0FF80662907F08386652938
:1003600007F08086672907F07D86612907F07C8683
:1003700003681B0A28BF41F08001692900F0E4836B
:10038000642900F0E183752900F0DE836F2901F014
:100390008C80782901F0CB80E92901F02780E429BD
:1003A00001F02480F52901F02180EF2901F08980F6
:1003B000F82901F0CA800368DB0928BF41F08001F9
:1003C000632901F0FD82732901F00283E32901F022
:1003D0000D83F32901F01283002070471FB507F049
:1003E0002BFE01F0C3F804000020002107F00EFEF0
:1003F000401C60600020002107F0F2FDE0601FBD9E
:1004000010B510BD01F098FB1146FFF7E7FF06F0AD
:1004100059FC01F0BFFB03B4FFF7F2FF03BC06F089
:10042000C9FB0000DFF84000016841F47001016081
:10043000BFF34F8FDFF83400016821F040410160C5
:10044000BFF36F8F0A480047FEE7FEE7FEE7FEE7CF
:10045000FEE7FEE7FEE7FEE7FEE7FEE705480649A2
:10046000064A074B7047000088ED00E034EF00E0DB
:10047000990200089803002098C3002098430020A8
:1004800098430020F0B45FEA930C10D006680F6820
:10049000456808304C6896FA17F642F8046B083144
:1004A00095FA14F4BCF1010C42F8044BEED113F0B0
:1004B000030304BFF0BC704730F902CB31F9024BA3
:1004C0005B1E9CFA14FC22F802CBF5D1F0BC7047FD
:1004D0005FEA930C28D000BF90ED003AD1ED002ADE
:1004E00090ED012AD1ED011A90ED021A91ED020A68
:1004F00063EE222AD0ED030A62EE211A21EE000AF1
:10050000C2ED002A91ED031AC2ED011A82ED020A32
:1005100020EE810A1030BCF1010C82ED030A01F1DA
:10052000100102F11002D7D113F0030308BF704786
:10053000B3F1004F31D2002BD8BF704713F0010F39
:10054000A0F10400A1F10401A2F104020AD090ED8F
:10055000010AD1ED010A001D091D20EE200A82EDDD
:10056000010A121D5B0808BF704700BF90ED010A29
:10057000D1ED010A0830083120EE200A5B1E82ED21
:10058000010A90ED000AD1ED000A20EE200A82ED6A
:10059000020A02F10802E9D17047B0EC010A5B1EC1
:1005A000F1EC010A20EE200AA2EC010AF5D1704715
:1005B000F0B44F1E002490ED000ABE08254600F15D
:1005C000040C2ED0DCED000A9CED011A0CF10800A1
:1005D000B4EEE00AF1EE10FA3CBF651CB0EE600A22
:1005E000B4EEC10AF1EE10FA3CBFA51CB0EE410A10
:1005F000D0ED000A90ED011A00F1080CB4EEE00A0B
:10060000F1EE10FA3CBFE51CB0EE600AB4EEC10A90
:10061000F1EE10FA3CBF251DB0EE410A241D761EF6
:10062000D0D117F0030018D0B0F1004F044619D212
:100630000028C8BF002610DDDCED000AF4EEC00A79
:10064000F1EE10FA03DD8D192D1AB0EE600A641E6A
:1006500006F101060CF1040CEED182ED000A1D60DA
:10066000F0BC7047FCEC010AB4EEE00AF1EE10FABF
:100670003CBF0D1AB0EE600A401EF3D1EDE7F0B4B6
:100680004F1E002490ED000ABE08254600F1040C20
:100690002ED0DCED000A9CED011A0CF10800B4EE3E
:1006A000E00AF1EE10FAC4BF651CB0EE600AB4EEC9
:1006B000C10AF1EE10FAC4BFA51CB0EE410AD0ED9C
:1006C000000A90ED011A00F1080CB4EEE00AF1EE18
:1006D00010FAC4BFE51CB0EE600AB4EEC10AF1EE38
:1006E00010FAC4BF251DB0EE410A241D761ED0D1DC
:1006F00017F0030018D0B0F1004F044619D20028BB
:10070000C8BF002610DDDCED000AF4EEC00AF1EEF1
:1007100010FA03D28D192D1AB0EE600A641E06F18C
:1007200001060CF1040CEED182ED000A1D60F0BC54
:100730007047FCEC010AB4EEE00AF1EE10FAC4BF17
:100740000D1AB0EE600A401EF3D1EDE79FED3A1AA4
:100750008B084DF8044DB0EE410A1DD0B3F1004FA7
:100760004DD2002BC4BF84461C4615DDDCED002AAB
:100770009CED012ADCED021A02EEA20ADCED030A6E
:10078000641E0CF1100C02EE020A01EEA10A00EE4A
:10079000A00AEBD100EB031011F003031BD0B3F15F
:1007A000004F42D2002B16DD13F0010FA0F1040020
:1007B00004D0D0ED010A001D00EEA00A5B080AD0AB
:1007C000D0ED011AD0ED020A083001EEA10A5B1E3D
:1007D00000EEA00AF4D100EE901AF8EE601AC0EE16
:1007E000210AF5EEC00AF1EE10FAA6BFB1EEE00A5A
:1007F00082ED000A82ED001A5DF8044B7047D0EDDF
:10080000000A00EEA00AD0ED010A08305B1E00EEDF
:10081000A00AD0ED000A00EEA00AD0ED010A00F116
:10082000080000EEA00AEAD1B6E7F0EC010A5B1E70
:1008300000EEA00AF9D1CEE7000000008A0817D028
:10084000B2F1004F32D2002AC4BF034694460FDDF6
:10085000F0EE400AC3ED000AC3ED010AC3ED020A3F
:10086000C3ED030A1033BCF1010CF1D100EB02100F
:1008700011F0030108BF7047B1F1004F24D20029E5
:10088000D8BF704711F0010FA0F104001CBF80ED2C
:10089000010A001D490808BF704700BF80ED010A2A
:1008A00080ED020A0830491EF8D17047F0EE400A88
:1008B000C0ED000AC0ED010AC0ED020A0C30521E64
:1008C000E0EC010AF2D1D3E7491EA0EC010AFBD10A
:1008D0007047000093084DF8044DC0EA004C0FD05B
:1008E000B3F1004F2ED2012B4FF0010408DB00BF03
:1008F000C1F800C0641CC1F804C00831A342F7DA93
:1009000012F0030204BF5DF8044B7047B2F1004FD0
:1009100020D2002ADCBF5DF8044B704712F0010FB3
:10092000A1F1020118BF21F8020F520804BF5DF8BF
:10093000044B70474880521E21F8040FFAD15DF82D
:10094000044B7047C1F800C0C1F804C008315B1EF9
:10095000F8D1D5E7521E21F8020BFBD15DF8044B0C
:100960007047000070B45FEA920C9FED690A3BD0BB
:10097000BCF1004F7DD2BCF1000F35DD04460B46C3
:100980004FEA0C056D1EB4F9006000EE906AF8EEB7
:10099000E00A60EE800AC3ED000AB4F9026000EEDE
:1009A000906AF8EEE00A60EE800AC3ED010AB4F93D
:1009B000046000EE906AF8EEE00A60EE800AC3ED93
:1009C000020AB4F9066004F1080400EE906AF8EE39
:1009D000E00A60EE800AC3ED030A03F11003D1D1EF
:1009E00000EBCC0001EB0C1112F0030204BF70BC51
:1009F0007047B2F1004F7CD2541E002C2EDD12F055
:100A0000010FA0F10203A1F1040C0BD133F9025F35
:100A100000EE905AF8EEE00A60EE800ACCED010A92
:100A20000CF1040CB3F90250641017D000EE905A88
:100A300033F9045F641EB8EEE01A00EE905AF8EE47
:100A4000E00A21EE001A60EE800A8CED011AB3F97B
:100A50000250CCED020A0CF1080CE7D1521E44BF43
:100A600070BC704701EB820130F9120000EE900A71
:100A700000E007E0F8EEE00A20EE800A81ED000ACF
:100A800070BC704730F9023B00EE903AF8EEE00A95
:100A900060EE800AC1ED000AB0F9003000EE903A35
:100AA000831CF8EEE00A60EE800AC1ED010AB0F99D
:100AB000020000EE900A01F10800991CF8EEE00A2D
:100AC000BCF1010C60EE800AC0ED000AB3F90230FF
:100AD00000EE903A00F1040301F10200F8EEE00AA2
:100AE00003F1040160EE800AC3ED000ACAD17BE77E
:100AF000FFE730F9023B521E00EE903AF8EEE00AB2
:100B000060EE800AE1EC010AF3D170BC704700008E
:100B100000000038704700000FB4044910B503AA64
:100B2000029800F0F3FB10BC5DF814FB24000020D9
:100B30000FB4044910B503AA029800F0E7FB10BCFB
:100B40005DF814FB240000202DE9F0410646002446
:100B500010687529314616A510D000F020F900283C
:100B600002DA404213A507E031688A0701D512A5D1
:100B700002E0490704D511A5012401E000F018F9AD
:100B800000210A2206F1240709E0B0FBF2FCB0FBC9
:100B9000F2F302FB1C00303078541846491C002840
:100BA000F3D123462A463046BDE8F04100F032B981
:100BB000000000002D0000002B00000020000000BD
:100BC0002DE9F05F894604464FF0000ADFF874B162
:100BD000FB44C0F820A02046E1688847002874D074
:100BE000252806D0D4E901219047206A401C2062C4
:100BF000F1E700265F462046E16888472028054641
:100C000007DB312D05D2781910F8200C08B1064306
:100C1000F1E7B00701D526F00406C4F81CA00027B0
:100C2000C4F818A02A2D09D0284605F0BCFF38B317
:100C300004EB8708303DC8F8185019E059F8041B38
:100C4000204604EB87029161E1688847012F054641
:100C500018D1E069002820DA26F020061DE0D8F837
:100C6000180000EB800005EB40003038C8F8180091
:100C70002046E1688847054605F095FF0028EED13B
:100C8000012F0AD02E2D08D12046E16888477F1C0D
:100C90000546022F46F02006C4DBA069002803DACF
:100CA000404246F00106A061F00701D026F0100690
:100CB0006C2D0BD0682D09D04C2D39D06A2D35D034
:100CC000742D35D07A2D33D016E038E0E1682F4608
:100CD00020468847B842054609D16C2F26D04FF4EC
:100CE0008060E168064320468847054604E06C2F93
:100CF0001AD04FF4807006430DB3A5F141001928B6
:100D000002D8203546F400664A4629462046266029
:100D10004E46FFF71BFB80B101280BD0F61D26F0D5
:100D2000070000F1080956E74020E4E78020D8E7F3
:100D30000020D6E706F104094DE7284652E7206A6D
:100D4000BDE8F09F98740000704770477047704787
:100D500070B5044685690068C10601D5302600E0FB
:100D60002026C00707D070BDD4E901213046904746
:100D7000206A401C20626D1EF6D570BD70B5044619
:100D800085690078C00707D170BDD4E90121202012
:100D90009047206A401C20626D1EF6D570BD096820
:100DA0004A0501D540B27047C905FCD500B270476D
:100DB00009684A0501D5C0B27047C905FCD580B2A3
:100DC000704770B50C460546012A05D02878800684
:100DD00000D5EA69002302E0012305E05B1C934291
:100DE00002D2E05C0028F9D1A869E618C01AA8610F
:100DF000286A184428622846FFF7AAFF04E0D5E9CC
:100E0000012114F8010B9047B442F8D32846FFF7AC
:100E1000B5FF70BD2DE9F0470D4699469246044650
:100E200000F124080168880604D5E06921F010016A
:100E3000216000E00120A84201DD471B00E00027FF
:100E4000A1697A1902EB0900081AA0612078C0068E
:100E500002D42046FFF77CFF002608E0D4E90121F8
:100E60001AF806009047206A401C761C20624E4506
:100E7000F4DB2078C0060AD52046FFF769FF06E0BC
:100E8000D4E9012130209047206A401C2062381E9E
:100E9000A7F10107F4DC07E0D4E9012118F8050007
:100EA0009047206A401C2062281EA5F10105F3DC52
:100EB0002046FFF763FF2078000602D50220BDE838
:100EC000F0870120FBE711680268006A530501D52D
:100ED00008700AE0D30501D5088006E0130603D5A3
:100EE000C217C1E9000200E00860012070477047A6
:100EF0002DE9FF4F0C461E464FF0FF378BB0D2E96D
:100F00000001DDF860800A908A46C1F30A5505B9F0
:100F10003D460021084607F095F8BAF1000F00F4AD
:100F2000400005DA00EB80004FF4400101EA500078
:100F30004FEA9059B9F1010F00DDB9460A9850EA1D
:100F40004A000ED044F61050A5F2FF3545432F1449
:100F5000B8F1000F1ED07542291E1EDDC9F1000236
:100F60001CE0B8F1010F4FF0000001D0302103E088
:100F7000F24305E02154401CB042FBDB3046002226
:100F8000002121540B99C1F80880C1E900200FB05D
:100F9000BDE8F08FBD1B6D1CDEE74A4600DA6942F2
:100FA00006A800F02FFD06AB93E8070003AB83E82B
:100FB000070050460A9900F02BFE8DE80700A0F5C7
:100FC00000501F3800900398002D0ADD42F21F01E7
:100FD0004A460844002303A90390684601F094F8A8
:100FE00009E0A0F500504A461F38002303A90390EA
:100FF000684601F09EF88DE807000004000C03D05D
:101000004FF0FF30410800E01046B8F1000F03D068
:101010000022009215461EE0751E05D400F0AAFAC3
:10102000303262556D1EF9D5B3460122084302D015
:1010300000227F1C04E02078302801D100227F1E8E
:10104000002A099784D01DE0112D07DA00F092FAEA
:10105000303262556D1C50EA0102F5D1084302D0CE
:101060000098C8B10EE00021681E05E0235C625CB8
:1010700063542254401E491C8142F7DBAB46A81B37
:10108000401E0990002004F80B000B98099AC0F844
:101090000880C0E9002B7AE711264FF0000857E7D7
:1010A0002DE9F04F88460446D21D22F0070191B089
:1010B000D1E90001CDE90A0105F05AFD02460B987D
:1010C000C00F01D02D2007E02068810701D52B201B
:1010D00002E0202101EAC000032A099001D0072A7A
:1010E00005DB03464146204600F020FC0BE120785A
:1010F000800601D5E06900E00620B8F1650F814661
:1011000006D0B8F1660F18D0B8F1670F70D131E092
:101110000020B9F1110F009001DB112301E009F16A
:1011200001030AAA01A90CA8FFF7E2FEDDE90C7091
:10113000002609F10105834647E001204B46009057
:101140004FF000470AAA01A90CA8FFF7D1FEDDE97C
:101150000DB00C995D46002610B909F101000D187B
:10116000B9EB050003D4C0F1FF3609F10105A5EB89
:1011700009002BE0B9F1010F01DA4FF0010900205D
:10118000B9F1110F0090484601DD112300E003463C
:101190000AAA01A90CA8FFF7ABFEDDE90C704D46C9
:1011A00000268346207800070AD4AB4500DA5D4666
:1011B00001A8012D04DD411911F8011C302907D0C7
:1011C0004F4502DA17F1040F04DA012082460FE0DE
:1011D0006D1EEEE7002F02DCED1B3E4403E0781CA1
:1011E000A84200DD7D1CB81B00F1010A4FF000474A
:1011F0002078000703D4AA4501DB4FF0FF3A002115
:10120000B7F1004F0DF143088DF8431024D00220B0
:101210002B23002F01DA7F422D230A21021EA0F189
:10122000010000DC5FB197FBF1FC97FBF1F201FBE1
:101230001C7C17460CF1300C08F801CDEEE7A8F144
:10124000010003702188090501D5452100E06521D1
:10125000A0F1010800F8011C09980FA9A1EB0807EB
:10126000FF1D00B10120411901EBEA70A16938446A
:10127000081A401EA0612078C00602D42046FFF75D
:1012800067FD099828B1D4E901219047206A401CE4
:1012900020622078C00622D52046FFF759FD1EE0C7
:1012A000002E04DBB34502DD01A8805D00E03020A4
:1012B000D4E901219047206A401C2062761CAAF1E3
:1012C00001005FEA000A0AD100F050F9C068016825
:1012D000405CD4E901219047206A401C2062281E0E
:1012E000A5F10105DCDC07E0D4E9012118F8010BC8
:1012F0009047206A401C2062381EA7F10107F3DCEA
:101300002046FFF73BFD032011B041E6074B70B5C7
:101310000D467B4400F0F7FA0446284600F0E4FB53
:1013200010B14FF0FF3070BD204670BD93590000E2
:101330002DE9FF5F15468A460446DFF8AC80F84485
:101340000027D8E900103E46CDE9001010E03AF839
:1013500016106A4602A800F0CBFB411C07D021788A
:10136000890603D5E269391891420DD80744761CE5
:101370002078800602D5E069B84205DDAE42E6DBA2
:101380003AF816000028E2D1A069C01BA0612046EF
:10139000FFF7DEFCD8E90010CDE90010002017E0CF
:1013A0003AF818106A4602A800F0A2FBB0F1FF3F1D
:1013B00081460BD000250DF1080B05E0D4E9012191
:1013C0001BF8050090476D1C4D45F7D308F101004F
:1013D000B0428046E4DB206A384420622046FFF7B2
:1013E000CDFCBDE8FF9F00003E6D00002DE9F041FF
:1013F0008046D21D22F007020025D2E90002F5291D
:1014000015A614D0011E72F1000106DA0023D0EBFC
:10141000030063EB020211A608E0D8F800108B0766
:1014200001D50FA602E0490701D50EA601251146F8
:10143000002408F1240704E000F09CF830323A550B
:10144000641C50EA0102F7D12B4632462146404641
:10145000BDE8F041FFF7DEBC000000002D000000F9
:101460002B0000002000000030B4002100F1240413
:1014700008E002F00705D208303542EA4372DB0883
:101480006554491C52EA0305F3D10468002310A2F5
:10149000250707D5A40600D421B1C46901230DA2F4
:1014A000641EC46130BCFFF7B5BC10B504462146CC
:1014B0001068FFF77DFC02462046BDE8104000237F
:1014C000D2E7D21D22F00701D1E90023CCE70000CA
:1014D0000000000030000000F0B40D46018809054E
:1014E00002D5214C7C4402E01F4C7C440E34002188
:1014F00000F1240608E002F00F071209E75D42EA56
:1015000003721B097754491C52EA0307F3D102788E
:101510000023120704D5702D06D009B1022311341F
:101520002246F0BCFFF776BC01231034F8E770B513
:1015300004460D4621461068FFF73AFC024629464C
:101540002046BDE870400023C6E7D21D22F0070305
:10155000D3E90023C0E70368126843F02003036067
:101560000823C3610023B7E7A06B00000048704761
:101570005803002030B5B0F10A024FEA900E71F125
:1015800000034EEA817EB0EB0E0061EB91014FEA61
:10159000101E4EEA017E10EB0E0041EB11114FEAD6
:1015A000102E4EEA016E10EB0E0041EB11214FEAB6
:1015B000104E4EEA014E10EB0E0041EB1141401867
:1015C00041F100014FEAD00040EA41704FEAD101F9
:1015D00010EB80054FEA810444EA907444EB010467
:1015E0006D1944EB0404521BA3414FF0000348BFA4
:1015F0000A3200D530BD401C41F1000130BD000071
:101600002DE9F04F04460D46D21D22F0070089B0A7
:10161000D0E900974846394605F0AAFA0246F80F85
:1016200001D02D2307E02068810701D52B2302E09C
:10163000202101EAC0038DF820300BB1012000E029
:101640000020032A824601D0072A04DB29462046CF
:1016500000F06CF93FE12078800601D40D2500E010
:10166000E569C7F30A560D2D49DA00214FEA175BE9
:10167000084606F0E7FC002F00F4400007DA00EB14
:1016800080004FF4400100EBD07001EA600081154A
:10169000012901DD4FF0FF3100224FEA850CBCF13A
:1016A000180F06D31346ACF118004FF08052C24019
:1016B00003E04FF4801323FA0CF30CF10C0CBCF193
:1016C000200F04D3ACF1200C09FA0CF001E007FA6A
:1016D0000CF000294FF0004801DD18B90FE00ED1E1
:1016E00040450CD319EB02095F4121B9404502D1B5
:1016F0009F4329EA0209BBEB175F00D0761C2088C4
:10170000000502D57B48784402E07A4878441938CD
:1017100008AA302302F80A30037C0AF10101002EE6
:101720000AF1020A53546A4602DC4FF0300101E02C
:101730004FF031014FF001088DF8001002D0A6F2F1
:10174000FF3603E059EA470100D06B4E002D02DC62
:101750002178090704D54FF002082E218DF80110D9
:10176000C44600210BE0C7F303433F01C35C491C9F
:101770006D1E02F80830052908F1010801DA002D74
:10178000F1DC00210CE000EB1973491C1B786D1E85
:10179000082902F808304FEA091908F1010801DAAE
:1017A000002DF0DC21688B0602D516E0A8F10108B7
:1017B000E04505DD02EB080313F8013C302BF5D0C2
:1017C000B8F1000F09DD02EB080313F8013C2E2BE2
:1017D00003D1090701D4A8F10108002D05DD3E2140
:1017E00002F808106D1E08F10108407C002E02F876
:1017F000080008F1010804DA2D20764202F80800FA
:1018000002E02B2002F808000A214FF47A70864289
:1018100008F101080BDB96FBF0F3303302F80830D7
:1018200096FBF0F308F1010800FB136601E0642E5B
:101830000CDB642096FBF0F3303302F8083096FBA3
:10184000F0F308F1010800FB136601E00A2E06DB45
:1018500096FBF1F0303002F8080008F1010896FB21
:10186000F1F001FB1060303002F80800A16908F1C6
:10187000010808EB050202EB0A00081AA0612078B3
:10188000C00602D42046FFF763FA216A08AE01EBD6
:101890000A00206204E0D4E9012116F8010B904708
:1018A000BAF1010AF7D22078C00602D52046FFF728
:1018B0004FFA6E4609E016F8010B3E280FD0D4E926
:1018C00001219047206A401C2062B8F10108F2D241
:1018D0002046FFF753FA09B00320BDE8F08F206AD5
:1018E0002844206203E0D4E90121302090476D1E96
:1018F000EBD3F8E7B969000002FCFFFF01694A1C5D
:1019000002610878704700B58FB0CDE90131002140
:10191000059105497944CDE9031011466846FFF762
:101920004FF90FB000BD0000E5FFFFFF2DE9F041CA
:101930001F46044603260168072A01F4006004DB01
:1019400008B116A505E016A503E008B115A500E04D
:1019500015A521F010002060A069C01EA0610FB184
:10196000401EA0612046FFF7F3F94FB1D4E90121F1
:1019700038469047206A401C2062C01C206206E066
:10198000206AFAE7D4E9012115F8010B9047761E89
:10199000F8D22046FFF7F2F9BDE8F0814E414E0043
:1019A0006E616E00494E4600696E660010B543696F
:1019B00013B1AFF3008001E0FFF703FA012010BD7F
:1019C000127800F124010A7000224A700122EDE72A
:1019D00011684FF0FF32E9E710B5436913B1AFF377
:1019E000008001E0FFF7A4FC012010BD128800F187
:1019F000240182840022C2840122EDE711684FF0A5
:101A0000FF32E9E72DE9F047814616468AB03548AE
:101A100078440DC88DE80D0032487844801C03AC32
:101A20000DC884E80D0041F69B300844372190FB37
:101A3000F1F290FBF1F5A5F1800501FB12041B3CCE
:101A400002D56442012000E00020DFF898A0804623
:101A50000027FA44AAF1BE0A0EE0E0070AD0324697
:101A6000684607EB470101230AEB810100F061FBA7
:101A70008DE8070064107F1C002CEED1194F7F44C5
:101A8000AE3F19E0E80715D007EB04100DF1180A76
:101A900090E80E008AE80E00C068F04201D1981963
:101AA00008903246012306A903A800F042FB03ABCD
:101AB00083E807006D10641C002DE3D14FF0010393
:101AC00032466946B8F1000F03A802D000F01CFBB3
:101AD00001E000F02EFBC9E90001C9F808200AB0B6
:101AE000BDE8F08740670000007B00F08000704791
:101AF00070B516460C46054600F044F8036893F8A6
:101B00000101012806D0FF2C0FD8185D68B1012013
:101B10002C7070BDD3F807013246214603F207133B
:101B200003442846BDE8704018474FF0FF3070BDB1
:101B300000487047380300207546FFF7F9FFAE46AE
:101B400005006946534620F00700854618B020B5C9
:101B5000FEF784FCBDE820404FF000064FF0000780
:101B60004FF000084FF0000B21F00701AC46ACE845
:101B7000C009ACE8C009ACE8C009ACE8C0098D46B2
:101B80007047000010B5FFF7F1FC001D10BD00BF4D
:101B90007D64000010B50446AFF300802046BDE828
:101BA0001040FEF738BC00004FF0013C50F8042B09
:101BB00051F8043B9A4215D1A2EB0C03934313EA6C
:101BC000CC130BD150F8042B51F8043B9A4209D1A5
:101BD000A2EB0C03934313EACC13E7D04FF00000C1
:101BE000704700BFD01A01BAB1FA81F101F01801B3
:101BF00022FA01F0CB40C1F12001DBB2C0B2C01A21
:101C00002CFA01F3D11A914311EAC311E6D17047BE
:101C10005FEA400C08BF91F0000F4FEA8C234FEAB7
:101C2000C12243EA51514FEA1C5018BF00F5F04061
:101C30004FEA300018BF41F000415FEA6C5C00F0F1
:101C40002980BCF1FF3F08BF40F080407047130C73
:101C500006BF12044FF0100C4FF0000C130E04BF1F
:101C600012020CF1080C130F04BF12010CF1040C4A
:101C7000930F04BF92000CF1020CD30F04BF52006B
:101C80000CF1010C11464FF00002A0F11F00A0EB77
:101C90000C00704711F0004F08BF704731F0004151
:101CA0003FF4D5AF0B0C06BF09044FF0100C4FF0FA
:101CB000000C0B0E04BF09020CF1080C0B0F04BF43
:101CC00009010CF1040C8B0F04BF89000CF1020C0C
:101CD000CB0F04BF49000CF1010CCCF12003A0EBA9
:101CE0000C0022FA03F302FA0CF241EA030100F1BC
:101CF0000100704720F07F4C80EA030023F07F470B
:101D0000ACEB070303F57C5300F0004003F1FF0345
:101D10002DE980494FEA154B09B44FEA144325EAEF
:101D20000B4E24EA03480FF2042606EB132749085A
:101D30003E785FEA320203FB0667C7F5000707FB40
:101D400006F64FEA54374FEAD64606F1020607FB7D
:101D5000066CCCF1005C4FEA1C472CEA074C07FBF1
:101D600006F40CFB06F504EB15464FEA961634BF55
:101D700000204FF000404FEAD13706FB07FC4FEA46
:101D80001C4C0CFB0BF7D21B03FB0CF761EB0701A0
:101D90000CFB0EF7B0EB074072EB17420CFB08F799
:101DA00034BFA2EB0742B2EB074261EB17414FEAA7
:101DB0000C444FEA910706FB07FC4FEA1C4C0CFB56
:101DC0000BF7B0EBC74072EB573203FB0CF734BF95
:101DD000A2EBC742B2EBC74261EB57310CFB0EF7E7
:101DE000B0EBC70072EB57720CFB08F734BFA2EBE5
:101DF000C702B2EBC70261EB5771039F4FEA8161E3
:101E000041EA921104EBCC044FEAD1374FEA8262E7
:101E100006FB07FC42EA90124FEA80604FEA1C4C36
:101E20000CFB0BF7D21B03FB0CF761EB07010CFB60
:101E30000EF7B0EB074072EB17420CFB08F734BF0C
:101E4000A2EB0742B2EB074261EB17414FEA8C5518
:101E50004FEA910704EB9C2406FB07FC4FEA1C4C5D
:101E60000CFB0BF7B0EBC74072EB573203FB0CF7E0
:101E700034BFA2EBC742B2EBC74261EB57310CFB58
:101E80000EF7B0EBC70072EB57720CFB08F734BFCC
:101E9000A2EBC702B2EBC70261EB577115EB4C2501
:101EA0004FEA816141EA92114FEA82624FEAD137EB
:101EB00042EA901206FB07FC44F100044FEA8060FE
:101EC0004FEA1C4C0CFB0BF7D21B03FB0CF761EB2E
:101ED00007010CFB0EF7B0EB074072EB17420CFB4F
:101EE00008F734BFA2EB0742B2EB074261EB1741A0
:101EF00015EB1C154FEA813141EA92414FEA8232DB
:101F000042EA90424FEA80304FEA0C7644F10004F6
:101F100048EA03434EEA0B484FF0000EB2EB080CC0
:101F200071EB030724BF624639464EEB0E0E4FF0AD
:101F3000000B0018524149414BEB0B0BB2EB080C64
:101F400071EB03077BF1000B24BF624639464EEB71
:101F50000E0E4FF0000B0018524149414BEB0B0B9A
:101F6000B2EB080C71EB03077BF1000B24BF624658
:101F700039464EEB0E0E51EA020718BF46F0010635
:101F800016EB0E7655F1000254F1000103D5BDE8C1
:101F90008901BDE80088BDE88901BDE80048B6199F
:101FA000524141EB0101A3F10103704780807F7E24
:101FB0007D7C7B7A797877767675747372717170BF
:101FC0006F6E6E6D6C6C6B6A6A6968686766666571
:101FD0006464636362616160605F5F5E5E5D5D5CFF
:101FE0005C5B5B5A5A595958585757565655555570
:101FF0005454535352525251515050504F4F4F4ED0
:102000004E4D4D4D4C4C4C4B4B4B4A4A4A4949491D
:10201000484848474747474646464545454444445F
:10202000444343434342424242414141002B9C4688
:1020300030D477002BD01CB54FEA370703B44FF0EC
:1020400010004FF01001BAF1000F06D0BCF1000FE4
:10205000DCBF40F0080040F0080105F0F3FF0FBCC2
:10206000BDE810400BF1010BBBF1010F08BF5FEAA7
:10207000170722BF12F1010211F101014FF00041D7
:1020800043F1000300F0004043EA00007047F9D339
:102090005708D0E746EA064613F1400F4FEA1646C6
:1020A0001FDD13F1200FDFBF16430A460021203346
:1020B0005B42BED0C3F1200746EA064602FA07F7A4
:1020C0004FEA164646EA0706C3F1200722FA03F252
:1020D00001FA07F721FA03F14FF0000342EA070281
:1020E000A7E746EA020646EA06464FEA164646EAE9
:1020F0000106BCBF46EA0646360C4FF000034FF01F
:1021000000024FF0000194E72DE9804C9A46934677
:1021100070B491E8380007C831EA400C48BF34EA8F
:10212000430C03D5FFF7E6FDFFF780FFF0BCBDE8E9
:10213000008C2DE9804C9A46934670B491E83800A3
:1021400007C810F0804F08BF13F0804F03D100F094
:1021500005F8FFF76BFFF0BCBDE8008C20F07F476F
:1021600080EA030023F07F4C07EB0C03A3F57C53BC
:1021700000F00040A3F1FE0392F0000F00F0B380E6
:1021800095F0000F00F077802DE901494FEA1140EA
:102190004FEA144621EA004800FB06FC24EA064701
:1021A00008FB06F607FB08F800FB07F718EB0648E4
:1021B0004CEB164C4FEA124B18EB07484FEA15460A
:1021C0004CEB174022EA0B4E0BFB06FC25EA0647B8
:1021D0000EFB06F607FB0EFE0BFB07F71EEB064E8B
:1021E0004CEB164C4FF000061EEB074E4CEB174B1A
:1021F00018EB0B0840F1000018EB0E0B58EB000831
:1022000040F100008F1A4FF000013CBFC943661B2C
:1022100014BFB5EB040C00213CBFC943F61B4FEAC9
:1022200017444EEA8E0E27EA04454FEA1C4704FB8A
:1022300007622CEA074C05FB07F70CFB05F604FBCD
:102240000CFC16EB074642EB174216EB0C4642EB32
:102250001C421BEB060658EB0202414146EA9E0671
:1022600001D5BDE80189B619524141EB0101A3F145
:102270000103BDE801894FEA14454FEA114724EAFA
:10228000054621EA074C05FB07F406FB07F70CFBA4
:1022900006F105FB0CFC11EB074144EB17444FEA38
:1022A000124711EB0C4144EB1C4422EA074C05FB9E
:1022B00007F206FB07F70CFB06F605FB0CFC16EB1A
:1022C000074642EB174216EB0C4642EB1C456A18D8
:1022D00054F1000148BF7047B619524141EB01016A
:1022E000A3F10103704795F0000F37D04FEA114278
:1022F0004FEA144721EA024624EA074C02FB07F1A1
:1023000006FB07F70CFB06F402FB0CFC14EB07447E
:1023100041EB17414FEA154714EB0C4441EB1C41CC
:1023200025EA074C02FB07F506FB07F70CFB06F650
:1023300002FB0CFC16EB074645EB174516EB0C466B
:1023400045EB1C42121951F1000148BF7047B61904
:10235000524141EB0101A3F1010370474FEA1445DB
:102360004FEA114724EA054621EA074C05FB07F12D
:1023700006FB07F70CFB06F24FF0000605FB0CFC12
:1023800012EB074241EB174112EB0C4251EB1C419F
:1023900048BF7047921841EB0101A3F10103704758
:1023A0001CB52348006840F0020021490860084637
:1023B000006840F008000860012003210023024665
:1023C000CDE900104FF4E0411A4801F00AFF012066
:1023D000032100230246CDE900104FF4E0611648C6
:1023E00001F0FFFE00224FF48051124801F0F2FE8E
:1023F00000224FF400510F4801F0ECFE00224FF490
:1024000080410C4801F0E6FE00224FF480710A483A
:1024100001F0E0FE00224FF40071074801F0DAFEFF
:1024200000224FF48061044801F0D4FE1CBD00007E
:10243000E044025800040258000C02582DE9F0470D
:1024400004460E4617461D46DDE9088922464FF42C
:1024500080511D4801F0BEFE32464FF400511A482B
:1024600001F0B8FE3A464FF48041174801F0B2FE41
:102470002A464FF48071154801F0ACFE42464FF4F5
:102480000071124801F0A6FE4A464FF480610F48E1
:1024900001F0A0FE21460EA004F084FC314610A0FD
:1024A00004F080FC394612A004F07CFC294614A0FC
:1024B00004F078FC414616A004F074FC494618A0CC
:1024C00004F070FCBDE8F08700040258000C0258CC
:1024D000494F5F5357335F41303A25640D0A00007E
:1024E000494F5F5357335F41313A25640D0A00006D
:1024F000494F5F5357335F41323A25640D0A00005C
:10250000494F5F5357345F41303A25640D0A00004C
:10251000494F5F5357345F41313A25640D0A00003B
:10252000494F5F5357345F41323A25640D0A00002A
:1025300010B500224FF40061054801F04BFEC020A9
:1025400003F000FF0122D102014801F043FE10BD5B
:102550000010025810B5044600224FF400611248E2
:1025600001F038FE34B1012C09D0022C0CD0032C20
:1025700013D10EE042F2280003F0E4FE0DE042F237
:10258000020003F0DFFE08E04FF4005003F0DAFE33
:1025900003E0C02003F0D6FE00BF00BF0122D1023D
:1025A000014801F017FE10BD001002582DE9F0415E
:1025B00006464FF0000800EE106AB8EE400B9FEDA3
:1025C000191B20EE010BBCEEC00B10EE107ABCB252
:1025D000C7F38F35B8F1000F08D124F4004444F458
:1025E000804425F4004545F4804507E024F4804408
:1025F00044F4004425F4804545F4004500224FF49E
:1026000000610A4801F0E6FD204603F09BFE2846E3
:1026100003F098FE0122D102044801F0DBFDBDE881
:10262000F08100003A8C30E28E792540001002588B
:102630001CB51448006840F400601249086001208D
:102640000090002302464FF4F06101900E4801F023
:10265000C8FD002280210C4801F0BCFD00224FF48F
:102660008071094801F0B6FD00224FF40071064860
:1026700001F0B0FD00224FF48061034801F0AAFD93
:102680001CBD0000E0440258001C02582DE9F04730
:102690000546894616461C46DDE90878B7480068B5
:1026A00040F00100B5490860B4480838006840F0BF
:1026B0002000B249083908600846006840F001006F
:1026C0000860AE481430006840F00200AB49143195
:1026D0000860AB48006840F00F00A9490860084650
:1026E000C06820F00F00C860A648006840F0407045
:1026F000A4490860A1486038006840F020009F4964
:10270000603908600846006820F0200008609B4897
:102710008838006820F440309849883908600846B5
:10272000006840F400300860974800689749C1F895
:1027300008030846806820F00050886008468068DA
:1027400040F0805088600A2004F044FA8F48806886
:1027500040F480708D4988600846D0F8C00040F091
:102760000200C1F8C0000846C06940F00300C8611B
:102770000846C06820F01C00C860012C01D0012F61
:1027800034D1B9F5806F04DB81A004F00BFB4FF06E
:1027900000090B2E02DD88A004F004FB012C02DDF1
:1027A0008EA004F0FFFA012F02DD95A004F0FAFAE2
:1027B0000020764908614FEA094040EA461040EAA5
:1027C000440038430969084370490861494695A0A7
:1027D00004F0E8FA314696A004F0E4FA214697A006
:1027E00004F0E0FA394698A004F0DCFA6748C068C3
:1027F00040F400506549C8600846C06840F00100D8
:10280000C8600846C06840F00200C860B8F5F04FE4
:1028100004D94FF4F0488FA004F0C4FA9248C0F8ED
:102820000080414691A004F0BDFA082D25D2DFE8D2
:1028300005F004080C1014181C2092A004F0B2FA41
:1028400020E098A004F0AEFA1CE09CA004F0AAFAE4
:1028500018E0A0A004F0A6FA14E0A4A004F0A2FAE4
:1028600010E0A8A004F09EFA0CE0ACA004F09AFAE4
:1028700008E0B1A004F096FA04E00025B5A004F049
:1028800091FA00BF00BF4148406920F038003F493D
:1028900048610846406940EAC50048610846006B47
:1028A00020F4F86008630846006B40F040000863BD
:1028B0000846806840F0804088600846806840F4A0
:1028C000803088600846806840F00040886000BF23
:1028D0002E48806800F000400028F9D1A848806A9E
:1028E00020F00100A649886200BFA548806A00F078
:1028F00001000028F9D1A248806840F47460A04922
:10290000886009209F490860204840309C4908633E
:102910009D4848630846C0F82C80002088629B4888
:1029200088620846806A40F00100886217480068A3
:1029300040F00100154908600846806840F0010039
:10294000886000BF1148006800F001000028F9D03D
:102950000E48806840F004000C49886042488C4969
:10296000026847F6FF70FDF7B5FF3F4801688948E8
:10297000B0EE040AFDF762FFBDE8F087E0440258BC
:1029800000000258040400580823024000200240BE
:102990004F535652206572722C73686F756C6420A9
:1029A000626520307E313032332C73657420746F51
:1029B00020300D0A000000004F56535320657272FC
:1029C0002C73686F756C6420626520307E31312C09
:1029D00073657420746F20300D0A00004A4F5653FF
:1029E00045206572722C73686F756C642062652077
:1029F000307E312C73657420746F20300D0A000016
:102A0000524F565345206572722C73686F756C6413
:102A100020626520307E312C73657420746F203005
:102A20000D0A00004F5356523A25640D0A0000006B
:102A30004F5653533A25640D0A0000004A4F56532F
:102A4000453A25640D0A0000524F5653453A256415
:102A50000D0A00004144435F6275666665723C3D45
:102A600033304B420D0A0000180000204144435F00
:102A70004255464645525F53495A453A25640D0A28
:102A800000000000312E352041444320636C6F6309
:102A90006B206379636C65732864656661756C741B
:102AA000290D0A00322E352041444320636C6F63A8
:102AB0006B206379636C65730D0A0000382E352036
:102AC00041444320636C6F636B206379636C65736F
:102AD0000D0A000031362E352041444320636C6FCF
:102AE000636B206379636C65730D0A0033322E3596
:102AF0002041444320636C6F636B206379636C6592
:102B0000730D0A0036342E352041444320636C6F28
:102B1000636B206379636C65730D0A003332372E63
:102B2000352041444320636C6F636B206379636C91
:102B300065730D0A000000003831302E3520414405
:102B40004320636C6F636B206379636C65730D0A5C
:102B50000000000073696D7072206572722120732D
:102B6000686F756C6420626520307E372C736574E5
:102B700020746F2030206E6F77210D0A0000000056
:102B800000000240040802400000003000ACA10038
:102B900000F0003000D0022430B52DED048B87B05A
:102BA0000546002400200690059008EE100A9FEDCF
:102BB000560AB0EE409A022D10D100BF06E05348ED
:102BC00030F9141052A004F0EDF8641C514800686C
:102BD0008442F4D350A004F0E5F88BE0012D21D11C
:102BE000002417E0494830F8140080B2A0F50040F6
:102BF00008EE100AB8EEC80ADFED480A20EE200AF7
:102C0000B0EE409AB7EEC90A53EC102B44A004F082
:102C1000C9F8641C3F4800688442E3D33EA004F036
:102C2000C1F867E04048806A20F001003E498862B0
:102C300000BF3D48806A00F001000028F9D1354806
:102C400000683949C8620846806A40F0010088621D
:102C50003648006840F0040034490860084680683F
:102C600040F00400886000BF2F48006800F4006056
:102C70000028F9D04FF400602B49886025482C4A81
:102C80002C4903682148FDF7FDFB22482A490268C8
:102C90002748FDF767FE1F48284A27490368A1F522
:102CA000F030FDF715FC06AB04AA1A48016823486A
:102CB000FDF77EFC05AB03AA164801681F48FDF727
:102CC000DEFC02AA134801681C48FDF73FFD9DED9C
:102CD000040ADDED030A70EE608A9DED020AB7EE8C
:102CE000C00A8DED000BB7EEE80A53EC102B14A0D0
:102CF00004F058F807480168044803F0E3F807B007
:102D0000BDEC048B30BD000000000000000000306E
:102D100025642C00180000200D0A00000000A038D7
:102D200025302E34662C00000000024000200240B6
:102D30000000002400F0003000B0042400F0002463
:102D40005670703A25302E34662C526D733A253009
:102D50002E34660D0A00000010B52DED028B84B0F4
:102D600000249FED2F0AB0EE408A9FED2D0AF0EE71
:102D7000408A2C48007800F0010020B1B0EE040A2F
:102D8000F0EE408A03E09FED280AF0EE408A2548E5
:102D9000007800F0020018B90821802001F091FFAE
:102DA0000A2003F017FF00BF0221204801F00AFAB1
:102DB0000028F9D1032303AA10210090802001F0FC
:102DC000E9FD9DF80C0000069DF80D1040EA014059
:102DD0009DF80E1040EA0124241200EE104AF8EE8D
:102DE000C00A9FED131A80EE810A20EE280AB0EE89
:102DF000408A9DF80E009DF80D109DF80C20B7EE4E
:102E0000C80ACDE90021029053EC102B09A003F071
:102E1000C9FFB0EE480A04B0BDEC028B10BD000043
:102E200000000000030000206F1203400018025849
:102E30006F120346414453313231395F5265616448
:102E40003A25302E36666D5620205241573A2530AD
:102E50003258202530325820253032580D0A0000D3
:102E60002DE9FC4104460D4616461F46DDF820803C
:102E70006548006840F04000634908600120002177
:102E80000B460246CDE900100146604801F0A9F961
:102E90000120002103460A46CDE9001002215B48CB
:102EA00001F09FF901221146584801F093F90022E0
:102EB0002821802001F0E0FC00F07F0054490870D8
:102EC0000846017853A003F06DFF082C25D2DFE8F7
:102ED00004F004080C1014181C2054A003F062FF26
:102EE00020E05DA003F05EFF1CE063A003F05AFF4A
:102EF00018E069A003F056FF14E06FA003F052FF42
:102F000010E075A003F04EFF0CE07BA003F04AFF39
:102F100008E081A003F046FF04E0002488A003F04D
:102F200041FF00BF00BF15B1012D08D103E08EA005
:102F300003F038FF08E093A003F034FF04E000251D
:102F400095A003F02FFF00BF00BF36B1012E08D0BF
:102F5000022E0AD0032E10D10BE099A003F022FF1D
:102F600010E09DA003F01EFF0CE09FA003F01AFFED
:102F700008E0A1A003F016FF04E00026A2A003F0E1
:102F800011FF00BF00BF17B1012F08D103E0A8A0B7
:102F900003F008FF08E0B1A003F004FF04E00027FD
:102FA000B7A003F0FFFE00BF00BFB8F1000F03D0D1
:102FB000B8F1010F08D103E0BBA003F0F3FE09E074
:102FC000C74803F0EFFE05E04FF00008C5A003F08E
:102FD000E9FE00BF00BF600140EA051040EA86003C
:102FE00040EA470040EA0800C84908700023084644
:102FF00002784021802001F02DFE0821802001F080
:1030000060FEBDE8FC810000E04402580018025850
:1030100002000020414453313231395F49443A3093
:103020007825302E32580D0A000000004D555830DA
:103030003A41494E50203D2041494E302C204149D3
:103040004E4E203D2041494E312028646566617511
:103050006C74290D0A0000004D5558313A41494E13
:1030600050203D2041494E322C2041494E4E203DBA
:103070002041494E330D0A004D5558323A41494ED0
:1030800050203D2041494E312C2041494E4E203D9B
:103090002041494E320D0A004D5558333A41494EB0
:1030A00050203D2041494E302C2041494E4E203D7C
:1030B0002041474E440D0A004D5558343A41494E7F
:1030C00050203D2041494E312C2041494E4E203D5B
:1030D0002041474E440D0A004D5558353A41494E5E
:1030E00050203D2041494E322C2041494E4E203D3A
:1030F0002041474E440D0A004D5558363A41494E3D
:1031000050203D2041494E332C2041494E4E203D18
:103110002041474E440D0A004D5558373A41494E1B
:103120005020616E642041494E4E2073686F727466
:10313000656420746F20415644442F320D0A00000C
:103140006D757820657272212073686F756C6420CC
:10315000626520307E372C73657420746F203020B8
:103160006E6F77210D0A00004741494E78313A478A
:1031700061696E203D2031202864656661756C743C
:10318000290D0A004741494E78343A4761696E205B
:103190003D2034200D0A00006761696E206572725F
:1031A000212073686F756C6420626520307E312C3D
:1031B00073657420746F2030206E6F77210D0A00C4
:1031C0004452303A323020535053202864656661AF
:1031D000756C74290D0A00004452313A393020537D
:1031E00050530D0A000000004452323A333330206D
:1031F0005350530D0A0000004452333A31303030FE
:10320000205350530D0A0000647220657272212011
:1032100073686F756C6420626520307E332C736533
:103220007420746F2030206E6F77210D0A0000002B
:10323000434D303A53696E676C652D73686F742027
:10324000636F6E76657273696F6E206D6F64652053
:103250002864656661756C74290D0A00434D313A26
:10326000436F6E74696E756F757320636F6E7665EC
:103270007273696F6E206D6F64650D0A0000000047
:10328000636D20657272212073686F756C642062B3
:103290006520307E312C73657420746F2030206E71
:1032A0006F77210D0A00000056524546303A496EAC
:1032B0007465726E616C20322E3034382D56207257
:1032C00065666572656E63652073656C65637465BC
:1032D00064202864656661756C74290D0A0000001D
:1032E0006C810008767265662065727221207368B1
:1032F0006F756C6420626520307E312C736574209C
:10330000746F2030206E6F77210D0A0003000020BB
:103310002DE9F04104460D4616461F46102D1FD2DA
:10332000DFE805F0081F354B60778DA3B8CFE5FDCA
:10333000FCFBFAF900224FF48041FE4800F04AFFFE
:1033400000224FF40041FB4800F044FF002201211D
:10335000F84800F03FFF00220221F64800F03AFF53
:103360004EE101229103F34800F034FF00224FF4B4
:103370000041F04800F02EFF00220121ED4800F04E
:1033800029FF00220221EB4800F024FF38E100224F
:103390004FF48041E74800F01DFF0122D103E548CA
:1033A00000F018FF00220121E24800F013FF002284
:1033B0000221E04800F00EFF22E101229103DD48E6
:1033C00000F008FF0122D103DA4800F003FF0022D9
:1033D0000121D84800F0FEFE00220221D54800F06D
:1033E000F9FE0DE100224FF48041D24800F0F2FED8
:1033F00000224FF40041CF4800F0ECFE01221146BC
:10340000CC4800F0E7FE00220221CA4800F0E2FEAC
:10341000F6E001229103C74800F0DCFE00224FF4E1
:103420000041C44800F0D6FE01221146C14800F018
:10343000D1FE00220221BF4800F0CCFEE0E00022D5
:103440004FF48041BB4800F0C5FE0122D103B948CA
:1034500000F0C0FE01221146B64800F0BBFE00227B
:103460000221B44800F0B6FECAE001229103B1483F
:1034700000F0B0FE0122D103AE4800F0ABFE012205
:103480001146AC4800F0A6FE00220221A94800F037
:10349000A1FEB5E000224FF48041A64800F09AFE5C
:1034A00000224FF40041A34800F094FE00220121C5
:1034B000A04800F08FFE012202219E4800F08AFE03
:1034C0009EE0012291039B4800F084FE00224FF40D
:1034D0000041984800F07EFE00220121954800F04E
:1034E00079FE01220221934800F074FE88E0002258
:1034F0004FF480418F4800F06DFE0122D1038D48CA
:1035000000F068FE002201218A4800F063FE0122DB
:103510000221884804E05EE047E030E018E002E085
:1035200000F058FE6CE001229103824800F052FE48
:103530000122D1037F4800F04DFE002201217D4889
:1035400000F048FE012202217A4800F043FE57E0D5
:1035500000224FF48041774800F03CFE00224FF4F7
:103560000041744800F036FE01221146714800F017
:1035700031FE012202216F4800F02CFE40E00122C2
:1035800091036C4800F026FE00224FF40041694888
:1035900000F020FE01221146664800F01BFE0122C9
:1035A0000221644800F016FE2AE000224FF4804118
:1035B000604800F00FFE0122D1035E4800F00AFED1
:1035C000012211465B4800F005FE01220221594804
:1035D00000F000FE14E001229103564800F0FAFDCD
:1035E0000122D103534800F0F5FD01221146514854
:1035F00000F0F0FD012202214E4800F0EBFD00BF7B
:1036000000BF29464CA003F0CDFB05F001014CA002
:1036100003F0C8FBC5F340014DA003F0C3FBC5F3A5
:1036200080014FA003F0BEFBC5F3C00150A003F022
:10363000B9FB082E16D2DFE806F0041628394A5BDB
:103640006CA5002280214E4800F0C4FD00224FF4FA
:1036500080714B4800F0BEFD00224FF400714848D5
:1036600000F0B8FD9EE001228021454800F0B2FD47
:1036700000224FF48071424800F0ACFD00224FF46C
:1036800000713F4800F0A6FD8CE0002280213C48FC
:1036900000F0A0FD01221102394800F09BFD00223C
:1036A0004FF40071364800F095FD7BE00122802147
:1036B000334800F08FFD01221102314800F08AFDED
:1036C00000224FF400712E4800F084FD6AE00022D1
:1036D00080212B4800F07EFD00224FF480712848A5
:1036E00000F078FD01225102254800F073FD59E0F9
:1036F00001228021224800F06DFD00224FF48071EC
:103700001F4800F067FD012251021D4800F062FDD4
:1037100048E0002280211A4800F05CFD01221102DD
:10372000174800F057FD01225102154800F052FDE4
:1037300038E00000000C025861783A25640D0A0058
:10374000494F5F5357415F4158313A25640D0A0094
:10375000494F5F5357415F4158323A25640D0A0083
:10376000494F5F5357415F4158333A25640D0A0072
:10377000494F5F5357415F4158343A25640D0A0061
:103780000010025801228021624800F023FD01222E
:103790001102604800F01EFD012251025D4800F058
:1037A00019FD00BF00BF31465BA003F0FBFA06F035
:1037B00001015BA003F0F6FAC6F340015CA003F040
:1037C000F1FAC6F380015EA003F0ECFA34B1012CEB
:1037D0001BD0022C2FD0032C5AD143E00122802190
:1037E0005B4800F0F7FC00224FF48071594800F06C
:1037F000F1FC00224021584800F0ECFC00224FF47C
:103800008051554800F0E6FC42E0002280215048FB
:1038100000F0E0FC012211024E4800F0DBFC002227
:1038200040214D4800F0D6FC00224FF480514A4818
:1038300000F0D0FC2CE000228021454800F0CAFCBA
:1038400000224FF48071434800F0C4FC0122402163
:10385000414800F0BFFC00224FF480513E4800F088
:10386000B9FC15E000228021394800F0B3FC0022A9
:103870004FF48071374800F0ADFC002240213648FB
:1038800000F0A8FC01221103334800F0A3FC00BFA4
:1038900000BF611C31A003F085FA0120A040C4B232
:1038A00004F001012FA003F07DFAC4F3400131A020
:1038B00003F078FAC4F3800132A003F073FAC4F382
:1038C000C00134A003F06EFA012003F083F92FB198
:1038D000012291020F4800F07DFC05E000224FF428
:1038E00080610C4800F076FC39462EA003F05AFAAD
:1038F00001222021164800F06DFC2EA003F052FAA0
:1039000000222021124800F065FC2EA003F04AFAA4
:10391000BDE8F0810010025861793A25640D0A0073
:10392000494F5F5357415F4159313A25640D0A00B1
:10393000494F5F5357415F4159323A25640D0A00A0
:10394000494F5F5357415F4159333A25640D0A008F
:10395000000C0258000802580018025863733A25F8
:10396000640D0A00494F5F5357415F4353313A2575
:10397000640D0A00494F5F5357415F4353323A2564
:10398000640D0A00494F5F5357415F4353333A2553
:10399000640D0A00494F5F5357415F4353343A2542
:1039A000640D0A00494F5F5357415F4441543A2523
:1039B000640D0A00494F5F5357415F5354423A31F7
:1039C0000D0A0000494F5F5357415F5354423A304C
:1039D0000D0A000010B5012240213A4800F0FAFB20
:1039E00039A003F0DFF9002280213B4800F0F2FB10
:1039F00000224FF48071394800F0ECFB0022402196
:103A0000374800F0E7FB00224FF48051344800F0C3
:103A1000E1FB34A003F0C6F936A003F0C3F939A0E6
:103A200003F0C0F93BA003F0BDF900224FF4804140
:103A3000294800F0CFFB00224FF40041264800F057
:103A4000C9FB00220121244800F0C4FB002202210E
:103A5000214800F0BFFB33A003F0A4F935A003F028
:103A6000A1F938A003F09EF93AA003F09BF90022D7
:103A70008021144800F0AEFB00224FF48071114801
:103A800000F0A8FB00224FF400710E4800F0A2FBEA
:103A900034A003F087F937A003F084F939A003F0CC
:103AA00081F9002220210C4800F094FB39A003F09A
:103AB00079F900224021034800F08CFB39A003F083
:103AC00071F910BD00100258494F5F5357415F52C2
:103AD00053543A310D0A0000000C025800080258F5
:103AE00000180258494F5F5357415F4353313A30F2
:103AF0000D0A0000494F5F5357415F4353323A303C
:103B00000D0A0000494F5F5357415F4353333A302A
:103B10000D0A0000494F5F5357415F4353343A3019
:103B20000D0A0000494F5F5357415F4158313A3009
:103B30000D0A0000494F5F5357415F4158323A30F8
:103B40000D0A0000494F5F5357415F4158333A30E7
:103B50000D0A0000494F5F5357415F4158343A30D6
:103B60000D0A0000494F5F5357415F4159313A30C8
:103B70000D0A0000494F5F5357415F4159323A30B7
:103B80000D0A0000494F5F5357415F4159333A30A6
:103B90000D0A0000494F5F5357415F5354423A307A
:103BA0000D0A0000494F5F5357415F5253543A305A
:103BB0000D0A00001CB51F48006840F004001D49B4
:103BC00008600846006840F0080008600846006881
:103BD00040F0100008600846006840F040000860AF
:103BE000012000900023024601020190124800F0DB
:103BF000F8FA01200090002302464CF2A301019044
:103C00000E4800F0EEFA01200090002302464FF427
:103C1000F86101900A4800F0E4FA012000900023C6
:103C200002464FF482510190064800F0DAFAFFF79D
:103C3000D1FE1CBDE044025800080258000C025896
:103C4000001002580018025810B502F0FDF802F0FA
:103C5000ADF80348006840F004000149086010BD59
:103C60009CEF00E02DE9F0472DED028B07460C4656
:103C700090461D460A9E9FED510AB0EE408A9FED88
:103C80004F0AF0EE408A4FF000094D4880F800805E
:103C9000002301221146104601F050FE642002F07C
:103CA00099FF40F6E340854200DD054640F6E340DB
:103CB000864200DD064627B1012F17D0022F2BD1F7
:103CC00029E02B4600220121084601F017F933466E
:103CD00000220121022001F011F9022000F004F974
:103CE00040F6C411012000F081F915E02B460022B6
:103CF0000121084601F002F9334600220121022089
:103D000001F0FCF8012000F0EFF840F6C4110120AA
:103D100000F06CF900E000BF00BF4FF000090AE0BE
:103D2000012001F00DFF30EE080AB0EE408A09F1E3
:103D3000010000F0FF09A145F2DB00EE104AB8EEE9
:103D4000400AC8EE000AB0EE608A00231A461946FF
:103D5000184601F0F3FD01201949087027B1012F21
:103D600010D0022F1DD11BE0701B00EE100AF8EEE0
:103D7000C00A80EE880ADFED130A80EE801AF0EEAA
:103D8000418A0EE0701B00EE100AF8EEC00A80EEC9
:103D9000880AF7EE000A80EE801AF0EE418A00E011
:103DA00000BF00BFB7EEE80A53EC102B06A002F0EC
:103DB000F9FFBDEC028BBDE8F087000000000000B9
:103DC00020000020CDCCCC3D6361705F75463A2564
:103DD000302E366675460D0A000000001CB52F48CF
:103DE000006840F000502D4908602C4808380068F1
:103DF00040F00100294908390860012000210B46E4
:103E00000322CDE900103021254800F0EAF9002016
:103E100024490860081D006820F00700091D08609B
:103E20000846006808600846006820F4E020086042
:103E300008460068086000201A49383908600846BA
:103E40000068086008460068086008460068086066
:103E50000846006808600846006808600846006870
:103E60000860084600680860084600680860084660
:103E7000006808600846006808600846006840F06E
:103E8000010008600846006840F4803008600020A7
:103E900004491839086008601CBD0000E844025855
:103EA00000000258387400401CB50D48006840F40A
:103EB00000700B49086001200090002302460C218D
:103EC0000190084800F08DF901220421054800F016
:103ED00081F901220821034800F07CF91CBD000093
:103EE000E04402580024025810B5044634B1012CB5
:103EF00012D0022C1ED0032C38D129E0002204213C
:103F0000204800F067F9002208211E4800F062F9FD
:103F10001DA002F047FF29E001220421194800F00A
:103F200059F900220821174800F054F91AA002F0AC
:103F300039FF1BE000220421124800F04BF9012256
:103F40000821104800F046F917A002F02BFF0DE001
:103F5000012204210B4800F03DF901220821094803
:103F600000F038F915A002F01DFF00BF00BF04F0FB
:103F7000010116A002F016FFC4F3400117A002F0E1
:103F800011FF10BD002402583735304BA6B82073FE
:103F9000656C6563740D0A0032344BA6B8207365F6
:103FA0006C6563740D0A0000322E34394BA6B820BC
:103FB00073656C6563740D0A00000000323433A62B
:103FC000B82073656C6563740D0A0000494F5F5338
:103FD00057355F413A25640D0A000000494F5F5391
:103FE00057355F423A25640D0A00000070B505465A
:103FF0000C46002600EE104AF8EE400A9FED131A18
:1040000081EE200ADFED120A80EE801ABCEEC10AB2
:1040100010EE106A55B10F4800686FF30F000D499C
:104020000860084600683043086009E009480068F5
:1040300080B2084908600846006840EA0640086007
:104040002246294604A002F0ADFE70BD00401C458A
:1040500000F07F45207400404C5F523A2564207682
:104060006F6C3A25640D0A001CB50E48006840F0DC
:1040700008000C4908600120032100230246CDE915
:1040800000100903084800F0ACF800224FF48051FA
:10409000054800F09FF800224FF40051024800F05C
:1040A00099F81CBDE0440258000C025870B5044653
:1040B0000D46012C00DD0124012D00DD01252246E5
:1040C0004FF48051084800F085F82A464FF400511B
:1040D000054800F07FF8214604A002F063FE29465F
:1040E00007A002F05FFE70BD000C025844697343E4
:1040F00068617267654A315F656E3A25640D0A0032
:104100004469734368617267654A325F656E3A2538
:10411000640D0A001FB500F043FE052202A900202D
:1041200002F008FC9DF80C009DF80B10CDE9001082
:104130009DF80A309DF809209DF8081005A002F0AE
:1041400031FE9DF8080020B105220D49002002F043
:10415000FEFB1FBD307825302E32582030782530B8
:104160002E325820307825302E32582030782530A5
:104170002E325820307825302E32580D0A0000009B
:104180000400002030B5CC1000F1200353F8243097
:104190004C07E50E0F24AC40A343CD1000F12004E2
:1041A00044F82530CC1000F1200353F824304C079C
:1041B000E40E02FA04F42343CD1000F1200444F885
:1041C000253030BD02461069084008B10120704713
:1041D0000020FCE702F001030BB1018300E0418302
:1041E00070472DE9F0470C46DDE9086700210025FE
:1041F0008C4600BF60E04FF0010808FA01F504EAC0
:10420000050CAC4557D1D0F800804FEA410A4FF079
:10421000030909FA0AF928EA0908C0F80080D0F869
:1042200000804FEA410902FA09F948EA0908C0F892
:104230000080012A01D0022A27D1D0F808804FEA55
:10424000410A4FF0030909FA0AF928EA0908C0F8F7
:104250000880D0F808804FEA410906FA09F948EACF
:104260000908C0F80880D0F804904FF0010808FA57
:1042700001F829EA0809C0F80490D0F8048003FA8C
:1042800001F948EA0908C0F80480D0F80C804FEA28
:10429000410A4FF0030909FA0AF928EA0908C0F8A7
:1042A0000C80D0F80C804FEA410907FA09F948EA76
:1042B0000908C0F80C80491C10299CD3BDE8F08780
:1042C00001461448006B20F4F860124B186318463E
:1042D000006B40EA811018631846006B20F00F0055
:1042E00018631846006840F004001860184680689B
:1042F00040F004009860084A00E0521E054800683B
:1043000000F0040008B9002AF7D10248006C80B21E
:104310007047000000200240FFFF0F002DE9F04130
:1043200007460C460025002608E03846FFF7C8FF80
:104330000544052002F04EFC701CC6B2A642F4DB18
:10434000B5FBF4F0BDE8F08110B5002240210E4825
:10435000FFF740FF002280210B48FFF73BFF0420BE
:1043600002F052FC012240210748FFF733FF0420EE
:1043700002F04AFC002240210348FFF72BFF0420F3
:1043800002F042FC10BD0000000402581CB50D48AC
:10439000006840F002000B4908600120032100235F
:1043A0000246CDE90010C0210748FFF71AFF01229D
:1043B00040210548FFF70EFF012280210248FFF748
:1043C00009FF1CBDE04402580004025810B5022049
:1043D00002F01AFC012280211148FFF7FBFE0220A7
:1043E00002F012FC012240210D48FFF7F3FE0420E9
:1043F00002F00AFC002240210948FFF7EBFE0220F0
:1044000002F002FC002280210548FFF7E3FE0220B3
:1044100002F0FAFB012240210148FFF7DBFE10BD4C
:104420000004025870B5054600242448006820F4B2
:1044300040402249086008460068086000261DE0E8
:10444000002240211D48FFF7C5FE042002F0DCFBDE
:10445000012240211948FFF7BDFE022002F0D4FBE3
:104460006006040E80211548FFF7ACFE08B1601C01
:10447000C4B2022002F0C8FB701CC6B2082EDFDBFB
:10448000002240210D48FFF7A5FE0C48006820F4EB
:1044900040400A4908600846006840F480400860CF
:1044A000002280210548FFF795FE15B9FFF78EFF22
:1044B00001E0FFF749FF204670BD000000040258EC
:1044C0002DE9F04780460C4615461E46DDF8209043
:1044D000012002F065FB00F07DF8404600F04AF84C
:1044E00000F0B8F810B10120BDE8F087B9F1000F75
:1044F0000CD02746E11704EB1161C1F3072000F04F
:1045000039F800F0A7F808B10120EDE72746E117D8
:1045100004EB11610912A4EB0121C8B200F02AF8E2
:1045200000F098F808B10120DEE700F053F808F138
:104530000101C8B200F01EF800F08CF808B10120AB
:10454000D2E70DE0012E04D10020FFF76BFF2870A9
:1045500003E00120FFF766FF2870701E86B26D1C15
:10456000002EEFD100F052F8002002F019FB0020DD
:10457000BAE7000070B50446002240211448FFF756
:1045800029FE00251BE0022002F03EFBE20980210B
:104590000F48FFF71FFE6006040E022002F034FBF6
:1045A000012240210A48FFF715FE042002F02CFBEF
:1045B000002240210648FFF70DFE681CC5B2082DF9
:1045C000E1DB012280210248FFF704FE70BD0000FC
:1045D0000004025810B5012240210B48FFF7FAFDF4
:1045E000022002F011FB012280210748FFF7F2FDB3
:1045F000022002F009FB002280210348FFF7EAFDB8
:10460000022002F001FB10BD0004025810B5042086
:1046100002F0FAFA002240210D48FFF7DBFD0220EC
:1046200002F0F2FA002280210948FFF7D3FD0220B0
:1046300002F0EAFA012240210548FFF7CBFD0220F3
:1046400002F0E2FA012280210148FFF7C3FD10BD0C
:104650000004025810B50024022002F0D5FA2548C3
:10466000006820F44040234908600846006808605C
:10467000022002F0C9FA012240211E48FFF7AAFDDC
:10468000022002F0C1FA15E0601C84B2FA2C11DDA0
:104690001848006820F44040164908600846006841
:1046A00040F480400860FFF7B1FF052002F092FA65
:1046B000012010BD80210F48FFF784FD0028E3D1C1
:1046C000022002F0A1FA002240210A48FFF782FDF1
:1046D000002280210748FFF77DFD0648006820F48E
:1046E0004040044908600846006840F48040086083
:1046F0000020DEE7000402582DE9F04780460C4612
:1047000015461E46DDF82090012002F049FAFFF719
:1047100061FF4046FFF72EFFFFF79CFF10B101201D
:10472000BDE8F087B9F1000F0CD02746E11704EB84
:104730001161C1F30720FFF71DFFFFF78BFF08B1E1
:104740000120EDE72746E11704EB11610912A4EB04
:104750000121C8B2FFF70EFFFFF77CFF08B101206F
:10476000DEE70AE02878FFF705FFFFF773FF08B1DF
:104770000120D5E7701E86B26D1C002EF2D1FFF726
:1047800045FF052002F026FA002002F009FA002079
:10479000C6E7000010B500224FF480410E48FFF735
:1047A00019FD00224FF400410B48FFF713FD0420D0
:1047B00002F02AFA012291030748FFF70BFD0420BB
:1047C00002F022FA00224FF480410348FFF702FD75
:1047D000042002F019FA10BD001402581CB50D484F
:1047E000006840F020000B490860012003210023ED
:1047F0000246CDE9001089030748FFF7F2FC0122C9
:1048000091030548FFF7E6FC0122D1030248FFF7B8
:10481000E1FC1CBDE04402580014025810B502200F
:1048200002F0F2F90122D1031248FFF7D3FC022073
:1048300002F0EAF9012291030E48FFF7CBFC0420B5
:1048400002F0E2F900224FF480410A48FFF7C2FC6F
:10485000022002F0D9F900224FF400410548FFF789
:10486000B9FC022002F0D0F9012291030148FFF7C0
:10487000B1FC10BD001402582DE9F04106460C466B
:1048800017464FF00008012002F08AF900F048F9BD
:10489000304600F013F900F087F94FB12546E117D3
:1048A00004EB1161C1F3072000F008F900F07CF976
:1048B0002546E11704EB11610912A4EB0121C8B2EE
:1048C00000F0FCF800F070F900F02AF9711CC8B291
:1048D00000F0F4F800F068F9002000F009F88046D4
:1048E00000F03CF9002002F05BF94046BDE8F081A1
:1048F00070B5054600242648006820F04040244951
:10490000086008460068086000261FE000224FF497
:1049100080411F48FFF75EFC042002F075F9012278
:1049200091031B48FFF756FC022002F06DF9600668
:10493000040E4FF400411648FFF744FC08B1601C18
:10494000C4B2022002F060F9701CC6B2082EDDDB92
:1049500000224FF480410E48FFF73CFC0C480068F1
:1049600020F040400A4908600846006840F0804056
:10497000086000224FF400410548FFF72BFC15B9F1
:10498000FFF74CFF01E0FFF705FF204670BD000078
:10499000001402582DE9F04780460C4615461E4685
:1049A000DDF82090012002F0FBF800F0B9F8404655
:1049B00000F084F800F0F8F810B10120BDE8F087AD
:1049C000B9F1000F0CD02746E11704EB1161C1F3D8
:1049D000072000F073F800F0E7F808B10120EDE7D8
:1049E0002746E11704EB11610912A4EB0121C8B2BB
:1049F00000F064F800F0D8F808B10120DEE700F01C
:104A00008FF808F10101C8B200F058F800F0CCF8B6
:104A100008B10120D2E70DE0012E04D10020FFF7FC
:104A200067FF287003E00120FFF762FF2870701E07
:104A300086B26D1C002EEFD100F090F8002002F03D
:104A4000AFF80020BAE770B506460C4615460120BF
:104A500002F0A6F800F064F8304600F02FF800F0FD
:104A6000A3F820B1002002F09BF8012070BD00F0F7
:104A700057F8711CC8B200F021F800F095F820B189
:104A8000002002F08DF80120F0E70DE0012D04D1A7
:104A90000020FFF72DFF207003E00120FFF728FF23
:104AA0002070681E85B2641C002DEFD100F056F80E
:104AB000002002F075F80020D8E7000070B5044629
:104AC00000224FF480411548FFF784FB00251DE0CC
:104AD000022002F099F8E2094FF400410F48FFF775
:104AE00079FB6006040E022002F08EF80122910389
:104AF0000A48FFF76FFB042002F086F800224FF40B
:104B000080410648FFF766FB681CC5B2082DDFDB55
:104B10000122D1030148FFF75DFB70BD001402586C
:104B200010B5012291030C48FFF754FB022002F05C
:104B30006BF80122D1030848FFF74CFB022002F07A
:104B400063F800224FF400410348FFF743FB0220C3
:104B500002F05AF810BD00000014025810B50420ED
:104B600002F052F800224FF480410E48FFF732FB6A
:104B7000022002F049F800224FF400410948FFF7F3
:104B800029FB022002F040F8012291030548FFF7BB
:104B900021FB022002F038F80122D1030148FFF77F
:104BA00019FB10BD0014025810B50024022002F0B9
:104BB0002BF82748006820F0404025490860084647
:104BC00000680860022002F01FF8012291032048CB
:104BD000FFF700FB022002F017F815E0601C84B21A
:104BE000FA2C11DD1A48006820F04040184908608E
:104BF0000846006840F080400860FFF7AFFF0520DE
:104C000001F0E8FF012010BD4FF400411048FFF70C
:104C1000D9FA0028E2D1022001F0F6FF00224FF479
:104C200080410B48FFF7D6FA00224FF400410848B4
:104C3000FFF7D0FA0648006820F0404004490860B9
:104C40000846006840F0804008600020DBE7000074
:104C5000001402582DE9F04180460C4616461F46C6
:104C6000012001F09DFFFFF75BFF4046FFF726FFA5
:104C7000FFF79AFF4FB12546E11704EB1161C1F32D
:104C80000720FFF71BFFFFF78FFF2546E11704EB17
:104C900011610912A4EB0121C8B2FFF70FFFFFF762
:104CA00083FF3046FFF70AFFFFF77EFFFFF756FF4F
:104CB000052001F08FFF002001F072FF0020BDE809
:104CC000F08170B505460C46012001F069FFFFF741
:104CD00027FF2846FFF7F2FEFFF766FF2046FFF7A3
:104CE000EDFEFFF761FF20B1002001F059FF012028
:104CF00070BDFFF733FF052001F06CFF002001F0CD
:104D00004FFF0020F4E770B506460C46154601201B
:104D100001F046FFFFF704FF3046FFF7CFFEFFF735
:104D200043FF0DE02078FFF7C9FEFFF73DFF20B1FC
:104D3000002001F035FF012070BD681E85B2641CA3
:104D4000002DEFD1FFF70AFF052001F043FF0020FF
:104D500001F026FF0020EFE71CB50F48006840F087
:104D600040000D49086001200090002302461C21EC
:104D700001900A48FFF735FA012204210748FFF79E
:104D800029FA012210210548FFF724FA01220821FF
:104D90000248FFF71FFA1CBDE044025800180258F1
:104DA00000B585B0062203A9FA2001F0C3FD9DF8E5
:104DB00011009DF810109DF80F20CDE90021029000
:104DC0009DF80E309DF80D209DF80C1002A001F00A
:104DD000E9FF05B000BD0000454550524F4D5F4909
:104DE000443A25302E32583A25302E32583A253062
:104DF0002E32583A25302E32583A25302E32583A33
:104E000025302E32580D0A002DE9FC47074688460A
:104E100015461C464FF0320A4FF00009012F02D010
:104E2000022F04D101E0C02602E0C22600E000BF4C
:104E300000BFB8F1000F2ED0B8F1010F5BD105F023
:104E40000200C4F3032141EA00108DF80000E0B233
:104E50008DF8010016E0022269463046FFF753FF45
:104E60000A2001F0B7FE05220DF102013046FFF7DE
:104E7000EAFD9DF804009DF8031040EA0129A145D0
:104E800000D106E0BAF10000AAF1010101F0FF0A29
:104E9000E1D100BF2FE005F00200602141EA4000AF
:104EA0008DF80000C4F307108DF801002007000EF4
:104EB0008DF8020016E0032269463046FFF723FF13
:104EC0000A2001F087FE05220DF102013046FFF7AE
:104ED000BAFD9DF806009DF8051040EA0129A1459C
:104EE00000D106E0BAF10000AAF1010101F0FF0AC9
:104EF000E1D100BF00BF00BFBDE8FC872DE9F04154
:104F000005460E4617461C464FF0000840F6E440A2
:104F1000844202DB4FF6FF7811E000EE104AF8EE13
:104F2000400A9FED0B1A80EE810ADFED0A0A80EE3F
:104F3000201ABCEEC10A10EE100A1FFA80F8434690
:104F40003A4631462846FFF75FFFBDE8F081000092
:104F500000007A443333533A30B52DED048B83B0DF
:104F60000446002008EE100A9FED520AF0EE408A37
:104F70009FED500AB0EE409A012C02D0022C04D1D1
:104F800001E0C02502E0C22500E000BF00BF05220D
:104F900001A92846FFF757FD9DF808009DF8071066
:104FA00040EA0120C0F30B0008EE100AB8EE480AF0
:104FB000DFED410A20EE200AF0EE408AB7EEE80A63
:104FC00053EC102B21463DA0FBF7B2FD9DF80600E7
:104FD0009DF8051040EA0120001108EE100AB8EE15
:104FE000480ADFED350A20EE200AB0EE409AB7EE0F
:104FF000C90A53EC102B214638A0FBF799FD9DF808
:10500000040000F0060030B1022809D004280CD0BA
:10501000062814D10EE0214638A0FBF789FD0EE0EA
:1050200021463EA0FBF784FD09E0214642A0FBF7A4
:105030007FFD04E0214648A0FBF77AFD00BF00BFDA
:105040009DF8040000F0C00030B1402809D080284D
:105050000CD0C02814D10EE0214647A0FBF768FD14
:105060000EE021464FA0FBF763FD09E0214658A062
:10507000FBF75EFD04E0214660A0FBF759FD00BF91
:1050800000BFF5EEC08AF1EE10FA04D1B5EEC09A79
:10509000F1EE10FA09D0214663A0FBF749FD002389
:1050A000032219462046FFF729FF03B0BDEC048B0D
:1050B00030BD0000000000003333533A63682564BC
:1050C0005F656570726F6D5F766F6C746167653A6E
:1050D00025302E346620560D0A00000063682564D2
:1050E0005F4441435F6F75745F766F6C7461676591
:1050F0003A25302E346620560D0A00006368256478
:105100005F6E6F726D616C206D6F6465204441430A
:10511000206F7574206E6F770D0A00006368256438
:105120005F314BA6B8206F6E20474E442C4441435C
:10513000204F46460D0A0000636825645F31303019
:105140004BA6B8206F6E20474E442C444143204F5D
:1051500046460D0A00000000636825645F35303064
:105160004BA6B8206F6E20474E442C444143204F3D
:1051700046460D0A00000000636825645F6565709F
:10518000726F6D206275737920616E642073757023
:10519000706F7420766C6F74616765206C6F770D2B
:1051A0000A000000636825645F656570726F6D209A
:1051B0006275737920616E6420737570706F7420EE
:1051C000766C6F74616765206F6B0D0A00000000DC
:1051D000636825645F656570726F6D2072656164D8
:1051E0007920616E6420737570706F7420766C6FB7
:1051F00074616765206C6F770D0A00006368256431
:105200005F656570726F6D20726561647920616E93
:105210006420737570706F7420766C6F746167654D
:10522000206F6B0D0A000000636825645F7365746E
:105230002064656661756C7420306D760D0A00001F
:105240000146002002E04908421CD0B20129FAD1EF
:10525000704700000748006820F480300549086066
:1052600004487030006820F0010002497031086085
:105270007047000024ED00E005200549086004485F
:105280007038006840F48030014970390860704718
:1052900094ED00E00FB500200090019002900346CD
:1052A00002464FF48031039000F05EF800200323A3
:1052B000CDE9003002900346012251040390080317
:1052C00000F052F8012000220323CDE901200093D1
:1052D000039013460222C1044FF0105000F044F82E
:1052E000012000220323CDE90120009303901346FF
:1052F00003224FF49021100700F036F8012000221D
:105300000323CDE9012000930390134604220104F6
:105310004FF0605000F028F800200323CDE9003062
:105320000290034605224FF0806103904FF0C04089
:1053300000F01AF8012000220323CDE90120009398
:105340000390134606228106500700F00DF8002056
:105350000323CDE9003002900123072219070390AF
:10536000C80000F001F80FBD2DE9F04F05460C46CE
:1053700016461F46DDE90A9ADDF8248000239B4685
:1053800004F01F0000B914B90120BDE8F08F2046D9
:10539000FFF756FF401E00F0FF0BFFF75BFF0E48C4
:1053A0000660001D056043EA077343EA086300BF17
:1053B00043EA894343EA4A430C9843EA004300BF67
:1053C00043EA4B0343F00103034808300360FFF74F
:1053D00053FF0020D9E7000098ED00E02DE9F041EF
:1053E0000746884614461D46284600F033F8C5F1A6
:1053F000040007FA00F60F20284100EA08000643DF
:1054000006F00F06E21704EBD2625211920002F18D
:10541000E022D2F800212146E31704EBD3635B11AD
:10542000A4EB431C012303FA0CF31A432046E317B1
:1054300004EBD3635B119B0003F1E023C3F800216D
:105440000348005D40EA061001490855BDE8F081B7
:1054500000E400E00146072323EA01021202054BA3
:1054600018684FF6FF031840034B18431043014BD5
:10547000186070470CED00E00000FA054A0A52027D
:105480000243014B1A60704708ED00E010B500229E
:1054900004210A48FEF79EFE09A001F083FC4FF4A8
:1054A0007A7001F097FB0CA001F07CFC4FF47A704D
:1054B00001F090FB01F0ECF810BD0000001802585C
:1054C0004D656D20416363657373204572726F7221
:1054D00021210D0A00000000536F6674205265738D
:1054E0006574696E672E2E2E0D0A00001CB52548C6
:1054F000006840F00200234908600846006840F058
:10550000100008600846006840F400700860012040
:10551000009000230246042101901B48FEF761FE23
:105520000220012100230A46CDE900104FF460510A
:105530001648FEF756FE0220012100230A46CDE957
:10554000001003211248FEF74CFE00224FF4805158
:105550000E48FEF73FFE00224FF400610B48FEF7B5
:1055600039FE00224FF400510848FEF733FE0022B6
:1055700001210748FEF72EFE002202210448FEF713
:1055800029FE1CBDE04402580004025800140258D1
:105590000024025870B506460C46154635B1012D5B
:1055A0000FD0022D18D0032D2CD120E00022012194
:1055B0007548FEF70FFE002202217348FEF70AFE2F
:1055C00020E0012211467048FEF704FE002202216D
:1055D0006D48FEF7FFFD15E0002201216A48FEF745
:1055E000F9FD012202216848FEF7F4FD0AE00122DC
:1055F00011466548FEF7EEFD012202216248FEF7E2
:10560000E9FD00BF00BF05F0010160A001F0CAFB89
:10561000C5F3400161A001F0C5FB46B101220421A0
:105620006248FEF7D7FD62A001F0BCFB07E0002254
:1056300004215E48FEF7CEFD64A001F0B3FB082C08
:1056400017D2DFE804F00417293B4C5E6F8000227C
:105650004FF480516348FEF7BDFD00224FF4006116
:105660006048FEF7B7FD00224FF400515D48FEF799
:10567000B1FD78E0012211035A48FEF7ABFD00228C
:105680004FF400615748FEF7A5FD00224FF400518A
:105690005448FEF79FFD66E000224FF480515148C8
:1056A000FEF798FD0122D1024E48FEF793FD00223D
:1056B0004FF400514B48FEF78DFD54E001221103D9
:1056C0004848FEF787FD0122D1024648FEF782FDD9
:1056D00000224FF400514348FEF77CFD43E00022D6
:1056E0004FF480513F48FEF775FD00224FF40061F2
:1056F0003C48FEF76FFD012251033A48FEF76AFD70
:1057000031E0012211033748FEF764FD00224FF417
:1057100000613448FEF75EFD012251033148FEF777
:1057200059FD20E000224FF480512E48FEF752FD33
:105730000122D1022B48FEF74DFD012251032948D9
:10574000FEF748FD0FE0012211032648FEF742FD57
:105750000122D1022348FEF73DFD012251032148D9
:10576000FEF738FD00BF00BF04F001011EA001F0EC
:1057700019FBC4F3400121A001F014FBC4F3800124
:1057800023A001F00FFB70BD00240258494F5F5366
:1057900057375F41303A25640D0A0000494F5F5387
:1057A00057375F41313A25640D0A00000004025862
:1057B000494F5F5357365F494E3A312C76726566D2
:1057C0003D312E3235760D0A00000000494F5F53FF
:1057D00057365F494E3A302C767265663D302E3032
:1057E000760D0A0000140258494F5F5047415F533D
:1057F00045545F41303A25640D0A0000494F5F501F
:1058000047415F5345545F41313A25640D0A00001A
:10581000494F5F5047415F5345545F41323A2564D9
:105820000D0A00001CB52248006840F00100204924
:1058300008600846006840F4807008600120032179
:1058400000230246CDE90010C1031A48FEF7C9FC47
:105850000120032100230246CDE900104FF46061CE
:105860001548FEF7BEFC0120032103460022CDE9C6
:1058700000104FF4E0411048FEF7B3FC0122510242
:105880000D48FEF7A7FC012291020B48FEF7A2FC8F
:105890000122D1020848FEF79DFC00224FF400418E
:1058A0000448FEF797FC0A2001F094F91CBD0000A3
:1058B000E0440258000002580020025810B54FF48E
:1058C00080510E48FEF77EFC044621460CA001F0F4
:1058D00069FA4FF400510948FEF774FC044621466A
:1058E0000CA001F05FFA4FF480410448FEF76AFC17
:1058F000044621460CA001F055FA10BD00200258C4
:10590000494F5F4348475F4445544543543A2564F3
:105910000D0A0000494F5F50475F444554454354CA
:105920003A25640D0A000000494F5F5057525F440A
:1059300045544543543A25640D0A00002DE9F041D1
:1059400004460E4617461D46012C00DD0124012E9B
:1059500000DD0124012F00DD0124012D00DD0125E2
:1059600022464FF400711348FEF734FC32464FF4E0
:1059700080611048FEF72EFC3A464FF400610D4856
:10598000FEF728FC2A464FF400410B48FEF722FCA4
:1059900021460AA001F006FA31460BA001F002FAF6
:1059A00039460DA001F0FEF929460FA001F0FAF9E1
:1059B000BDE8F0810020025800000258706F775F48
:1059C000656E3A25640D0A00706F775F656E313A37
:1059D00025640D0A00000000706F775F656E323A33
:1059E00025640D0A00000000707772656E5F6C69B7
:1059F0006E6B3A25640D0A001CB52848006840F01B
:105A00000200264908600846006840F0200008604F
:105A100022480C38006840F4804020490C39086066
:105A20000120032100230222CDE9001081021C483D
:105A3000FEF7D7FB0120032100230222CDE900104D
:105A40004FF4F8611748FEF7CCFB09220A211448ED
:105A5000FEF798FB092207211248FEF793FB0A2262
:105A600008211048FEF78EFB0A2209210D48FEF797
:105A700089FB09220A210B48FEF784FB074864389A
:105A8000006840F4804005496439086008460068B1
:105A900020F48040086000201CBD0000E044025853
:105AA000000402580014025870B52DED028B064612
:105AB000002500249FED120AB0EE408A1421012037
:105AC000FEF72CFC0546A5F5004400EE104AB8EEA2
:105AD000C00ADFED0C0A20EE200AB0EE408AB7EED5
