:020000040800F2
:1000000090C30020B1030008D5030008D7030008FF
:10001000F54C0008DB030008DD03000800000000C9
:10002000000000000000000000000000DF030008E6
:10003000E103000800000000E3030008E5030008F6
:10004000E7030008E7030008E7030008E7030008E8
:10005000E7030008E7030008E7030008E7030008D8
:10006000E7030008E7030008E7030008E7030008C8
:10007000E7030008E7030008E7030008E7030008B8
:10008000E7030008E7030008E7030008E7030008A8
:10009000E7030008E7030008E7030008E703000898
:1000A000E7030008E7030008E7030008E703000888
:1000B000E7030008E70300082D600008E7030008D5
:1000C000E7030008E7030008E7030008E703000868
:1000D000E7030008B9620008E7030008E703000827
:1000E000E7030008E703000800000000E70300083A
:1000F000E7030008E7030008E7030008E703000838
:10010000E7030008E703000869600008E703000848
:10011000E7030008E7030008E7030008E703000817
:10012000E7030008E7030008E7030008E703000807
:10013000E7030008E7030008E7030008E7030008F7
:1001400000000000000000000000000000000000AF
:10015000E7030008E7030008E7030008E7030008D7
:10016000E7030008E7030008E7030008E7030008C7
:10017000E7030008E7030008E703000800000000A9
:10018000E7030008E7030008E7030008E7030008A7
:10019000E7030008E7030008E7030008E703000897
:1001A000E7030008E7030008E7030008E703000887
:1001B000E7030008E7030008E7030008E703000877
:1001C000E7030008E7030008E7030008E703000867
:1001D000E7030008E7030008E7030008E703000857
:1001E000E7030008E7030008E7030008E703000847
:1001F000E7030008E7030008E7030008E703000837
:10020000E7030008E7030008E7030008E703000826
:10021000E7030008E7030008E7030008E703000816
:10022000E7030008E7030008E703000800000000F8
:10023000E7030008E703000800000000E7030008E8
:10024000E7030008E7030008E7030008E7030008E6
:10025000E7030008E7030008E7030008E7030008D6
:10026000E7030008E7030008E7030008E7030008C6
:10027000E7030008E7030008E703000800000000A8
:10028000E7030008E7030008E70300080000000098
:1002900000000000E703000800F002F800F078F822
:1002A0000AA090E8000C82448344AAF10107DA45D1
:1002B00001D100F06DF8AFF2090EBAE80F0013F0AB
:1002C000010F18BFFB1A43F001031847907B000091
:1002D000D07B00000A444FF0000C10F8013B13F0F3
:1002E000070408BF10F8014B1D1108BF10F8015B8F
:1002F000641E05D010F8016B641E01F8016BF9D182
:1003000013F0080F1EBF10F8014BAD1C0C1B09D1D8
:100310006D1E58BF01F801CBFAD505E014F8016B4A
:1003200001F8016B6D1EF9D59142D6D370470000DC
:100330000023002400250026103A28BF78C1FBD8EE
:10034000520728BF30C148BF0B607047662907F0CD
:10035000E582642900F00284752900F0FF83782982
:1003600000F03884632900F09B87732900F0A08790
:10037000002070471FB507F0BBFA00F0AFFF040084
:100380000020002107F09EFAE0601FBD10B510BDEF
:1003900001F0C0F81146FFF7EDFF06F0FDF801F09F
:1003A000DEF803B4FFF7F2FF03BC06F06DF80000BF
:1003B000DFF84000016841F470010160BFF34F8F26
:1003C000DFF83400016821F040410160BFF36F8F16
:1003D0000A480047FEE7FEE7FEE7FEE7FEE7FEE726
:1003E000FEE7FEE7FEE7FEE705480649064A074B3B
:1003F0007047000088ED00E034EF00E0990200084B
:100400009003002090C300209043002090430020E0
:10041000F0B45FEA930C10D006680F6845680830A6
:100420004C6896FA17F642F8046B083195FA14F402
:10043000BCF1010C42F8044BEED113F0030304BFEE
:10044000F0BC704730F902CB31F9024B5B1E9CFACD
:1004500014FC22F802CBF5D1F0BC70475FEA930C94
:1004600028D000BF90ED003AD1ED002A90ED012A8E
:10047000D1ED011A90ED021A91ED020A63EE222AE3
:10048000D0ED030A62EE211A21EE000AC2ED002A25
:1004900091ED031AC2ED011A82ED020A20EE810AE3
:1004A0001030BCF1010C82ED030A01F1100102F1E0
:1004B0001002D7D113F0030308BF7047B3F1004F08
:1004C00031D2002BD8BF704713F0010FA0F1040008
:1004D000A1F10401A2F104020AD090ED010AD1EDCC
:1004E000010A001D091D20EE200A82ED010A121DDD
:1004F0005B0808BF704700BF90ED010AD1ED010A0B
:100500000830083120EE200A5B1E82ED010A90EDD2
:10051000000AD1ED000A20EE200A82ED020A02F163
:100520000802E9D17047B0EC010A5B1EF1EC010A48
:1005300020EE200AA2EC010AF5D17047F0B44F1E5C
:10054000002490ED000ABE08254600F1040C2ED0D0
:10055000DCED000A9CED011A0CF10800B4EEE00A93
:10056000F1EE10FA3CBF651CB0EE600AB4EEC10AB1
:10057000F1EE10FA3CBFA51CB0EE410AD0ED000A26
:1005800090ED011A00F1080CB4EEE00AF1EE10FA59
:100590003CBFE51CB0EE600AB4EEC10AF1EE10FA01
:1005A0003CBF251DB0EE410A241D761ED0D117F0A8
:1005B000030018D0B0F1004F044619D20028C8BF7C
:1005C000002610DDDCED000AF4EEC00AF1EE10FAB0
:1005D00003DD8D192D1AB0EE600A641E06F10106C6
:1005E0000CF1040CEED182ED000A1D60F0BC7047E6
:1005F000FCEC010AB4EEE00AF1EE10FA3CBF0D1A71
:10060000B0EE600A401EF3D1EDE7F0B44F1E0024B7
:1006100090ED000ABE08254600F1040C2ED0DCED5A
:10062000000A9CED011A0CF10800B4EEE00AF1EEAC
:1006300010FAC4BF651CB0EE600AB4EEC10AF1EE58
:1006400010FAC4BFA51CB0EE410AD0ED000A90ED2F
:10065000011A00F1080CB4EEE00AF1EE10FAC4BF82
:10066000E51CB0EE600AB4EEC10AF1EE10FAC4BFA8
:10067000251DB0EE410A241D761ED0D117F00300CF
:1006800018D0B0F1004F044619D20028C8BF002688
:1006900010DDDCED000AF4EEC00AF1EE10FA03D230
:1006A0008D192D1AB0EE600A641E06F101060CF1D8
:1006B000040CEED182ED000A1D60F0BC7047FCEC2A
:1006C000010AB4EEE00AF1EE10FAC4BF0D1AB0EE62
:1006D000600A401EF3D1EDE79FED3A1A8B084DF802
:1006E000044DB0EE410A1DD0B3F1004F4DD2002BA6
:1006F000C4BF84461C4615DDDCED002A9CED012AB2
:10070000DCED021A02EEA20ADCED030A641E0CF113
:10071000100C02EE020A01EEA10A00EEA00AEBD1D3
:1007200000EB031011F003031BD0B3F1004F42D2D2
:10073000002B16DD13F0010FA0F1040004D0D0ED62
:10074000010A001D00EEA00A5B080AD0D0ED011AD4
:10075000D0ED020A083001EEA10A5B1E00EEA00AED
:10076000F4D100EE901AF8EE601AC0EE210AF5EE10
:10077000C00AF1EE10FAA6BFB1EEE00A82ED000A5F
:1007800082ED001A5DF8044B7047D0ED000A00EED0
:10079000A00AD0ED010A08305B1E00EEA00AD0EDE1
:1007A000000A00EEA00AD0ED010A00F1080000EEF8
:1007B000A00AEAD1B6E7F0EC010A5B1E00EEA00A3F
:1007C000F9D1CEE7000000008A0817D0B2F1004F3F
:1007D00032D2002AC4BF034694460FDDF0EE400A31
:1007E000C3ED000AC3ED010AC3ED020AC3ED030A1B
:1007F0001033BCF1010CF1D100EB021011F0030138
:1008000008BF7047B1F1004F24D20029D8BF70470C
:1008100011F0010FA0F104001CBF80ED010A001DC2
:10082000490808BF704700BF80ED010A80ED020A49
:100830000830491EF8D17047F0EE400AC0ED000ABA
:10084000C0ED010AC0ED020A0C30521EE0EC010AB4
:10085000F2D1D3E7491EA0EC010AFBD1704700009A
:1008600093084DF8044DC0EA004C0FD0B3F1004F8F
:100870002ED2012B4FF0010408DB00BFC1F800C0ED
:10088000641CC1F804C00831A342F7DA12F0030275
:1008900004BF5DF8044B7047B2F1004F20D2002A2C
:1008A000DCBF5DF8044B704712F0010FA1F10201AB
:1008B00018BF21F8020F520804BF5DF8044B7047BF
:1008C0004880521E21F8040FFAD15DF8044B70479E
:1008D000C1F800C0C1F804C008315B1EF8D1D5E7EB
:1008E000521E21F8020BFBD15DF8044B704700004B
:1008F00070B45FEA920C9FED690A3BD0BCF1004FE7
:100900007DD2BCF1000F35DD04460B464FEA0C05E5
:100910006D1EB4F9006000EE906AF8EEE00A60EE39
:10092000800AC3ED000AB4F9026000EE906AF8EEA6
:10093000E00A60EE800AC3ED010AB4F9046000EE3B
:10094000906AF8EEE00A60EE800AC3ED020AB4F99C
:10095000066004F1080400EE906AF8EEE00A60EE2A
:10096000800AC3ED030A03F11003D1D100EBCC00E0
:1009700001EB0C1112F0030204BF70BC7047B2F11E
:10098000004F7CD2541E002C2EDD12F0010FA0F17E
:100990000203A1F1040C0BD133F9025F00EE905A6F
:1009A000F8EEE00A60EE800ACCED010A0CF1040CCE
:1009B000B3F90250641017D000EE905A33F9045F77
:1009C000641EB8EEE01A00EE905AF8EEE00A21EE4E
:1009D000001A60EE800A8CED011AB3F90250CCEDDA
:1009E000020A0CF1080CE7D1521E44BF70BC7047DC
:1009F00001EB820130F9120000EE900A00E007E0FE
:100A0000F8EEE00A20EE800A81ED000A70BC704723
:100A100030F9023B00EE903AF8EEE00A60EE800A10
:100A2000C1ED000AB0F9003000EE903A831CF8EEF8
:100A3000E00A60EE800AC1ED010AB0F9020000EEA2
:100A4000900A01F10800991CF8EEE00ABCF1010CD3
:100A500060EE800AC0ED000AB3F9023000EE903A71
:100A600000F1040301F10200F8EEE00A03F10401D1
:100A700060EE800AC3ED000ACAD17BE7FFE730F9D8
:100A8000023B521E00EE903AF8EEE00A60EE800A59
:100A9000E1EC010AF3D170BC70470000000000389F
:100AA000704700000FB4044910B503AA029800F083
:100AB00003FC10BC5DF814FB2C00002070B504464C
:100AC00085690068C10601D5302600E02026C007F0
:100AD00007D070BDD4E9012130469047206A401C00
:100AE00020626D1EF6D570BD70B50446856900782C
:100AF000C00707D170BDD4E9012120209047206AAA
:100B0000401C20626D1EF6D570BD70B50C460546C2
:100B1000012A05D02878800600D5EA69002302E082
:100B2000012305E05B1C934202D2E05C0028F9D16E
:100B3000A869E618C01AA861286A184428622846DD
:100B4000FFF7BCFF04E0D5E9012114F8010B904741
:100B5000B442F8D32846FFF7C7FF70BD2DE9F04136
:100B60000646002410687529314616A510D0AFF34B
:100B70000080002802DA404213A507E031688A07A6
:100B800001D512A502E0490704D511A5012401E011
:100B9000AFF3008000210A2206F1240709E0B0FB30
:100BA000F2FCB0FBF2F302FB1C0030307854184624
:100BB000491C0028F3D123462A463046BDE8F041BF
:100BC00000F0FCB8000000002D0000002B00000029
:100BD0002000000070B504460D4621461068AFF3B2
:100BE00000802188090502D50F4A7A4402E00E4AA6
:100BF0007A440E32002104F1240305E000F00F06D0
:100C00000009965D5E54491C0028F7D12078002326
:100C1000000704D5702D02D009B1022311322046FD
:100C2000BDE8704000F0CAB8326D00002DE9F05FF9
:100C3000894604464FF0000ADFF874B1FB44C0F85F
:100C400020A02046E1688847002874D0252806D0D7
:100C5000D4E901219047206A401C2062F1E7002678
:100C60005F462046E16888472028054607DB312D8E
:100C700005D2781910F8200C08B10643F1E7B00747
:100C800001D526F00406C4F81CA00027C4F818A05B
:100C90002A2D09D0284605F0F0FB38B304EB87086D
:100CA000303DC8F8185019E059F8041B204604EBF1
:100CB00087029161E1688847012F054618D1E069F4
:100CC000002820DA26F020061DE0D8F8180000EBF6
:100CD000800005EB40003038C8F818002046E16875
:100CE0008847054605F0C9FB0028EED1012F0AD040
:100CF0002E2D08D12046E16888477F1C0546022F2B
:100D000046F02006C4DBA069002803DA404246F022
:100D10000106A061F00701D026F010066C2D0BD063
:100D2000682D09D04C2D39D06A2D35D0742D35D091
:100D30007A2D33D016E038E0E1682F462046884708
:100D4000B842054609D16C2F26D04FF48060E16887
:100D5000064320468847054604E06C2F1AD04FF41E
:100D6000807006430DB3A5F14100192802D8203543
:100D700046F400664A462946204626604E46FFF75E
:100D8000E5FA80B101280BD0F61D26F0070000F12E
:100D9000080956E74020E4E78020D8E70020D6E79E
:100DA00006F104094DE7284652E7206ABDE8F09FA6
:100DB000086D000070477047704770472DE9F04795
:100DC0000D4699469246044600F1240801688806BB
:100DD00004D5E06921F01001216000E00120A84263
:100DE00001DD471B00E00027A1697A1902EB090029
:100DF000081AA0612078C00602D42046FFF75EFEE4
:100E0000002608E0D4E901211AF806009047206A7C
:100E1000401C761C20624E45F4DB2078C0060AD5C3
:100E20002046FFF74BFE06E0D4E901213020904731
:100E3000206A401C2062381EA7F10107F4DC07E09D
:100E4000D4E9012118F805009047206A401C20626F
:100E5000281EA5F10105F3DC2046FFF745FE2078AA
:100E6000000602D50220BDE8F0870120FBE77047AD
:100E70002DE9FF4F0C461E464FF0FF378BB0D2E9ED
:100E80000001DDF860800A908A46C1F30A5505B971
:100E90003D460021084606F031FDBAF1000F00F48E
:100EA000400005DA00EB80004FF4400101EA5000F9
:100EB0004FEA9059B9F1010F00DDB9460A9850EA9E
:100EC0004A000ED044F61050A5F2FF3545432F14CA
:100ED000B8F1000F1ED07542291E1EDDC9F10002B7
:100EE0001CE0B8F1010F4FF0000001D0302103E009
:100EF000F24305E02154401CB042FBDB30460022A7
:100F0000002121540B99C1F80880C1E900200FB0DD
:100F1000BDE8F08FBD1B6D1CDEE74A4600DA694272
:100F200006A800F07DFA06AB93E8070003AB83E860
:100F3000070050460A9900F04FFB8DE80700A0F526
:100F400000501F3800900398002D0ADD42F21F0167
:100F50004A460844002303A90390684600F0B8FD00
:100F600009E0A0F500504A461F38002303A903906A
:100F7000684600F0C2FD8DE807000004000C03D0B5
:100F80004FF0FF30410800E01046B8F1000F03D0E9
:100F90000022009215461EE0751E05D400F0A2F94D
:100FA000303262556D1EF9D5B3460122084302D096
:100FB00000227F1C04E02078302801D100227F1E0F
:100FC000002A099784D01DE0112D07DA00F08AF974
:100FD000303262556D1C50EA0102F5D1084302D04F
:100FE0000098C8B10EE00021681E05E0235C625C39
:100FF00063542254401E491C8142F7DBAB46A81BB8
:10100000401E0990002004F80B000B98099AC0F8C4
:101010000880C0E9002B7AE711264FF0000857E757
:101020002DE9F04F88460446D21D22F0070191B009
:10103000D1E90001CDE90A0105F004FA02460B9856
:10104000C00F01D02D2007E02068810701D52B209B
:1010500002E0202101EAC000032A099001D0072AFA
:1010600005DB03464146204600F09AF90BE1207863
:10107000800601D5E06900E00620B8F1650F8146E1
:1010800006D0B8F1660F18D0B8F1670F70D131E013
:101090000020B9F1110F009001DB112301E009F1EB
:1010A00001030AAA01A90CA8FFF7E2FEDDE90C7012
:1010B000002609F10105834647E001204B460090D8
:1010C0004FF000470AAA01A90CA8FFF7D1FEDDE9FD
:1010D0000DB00C995D46002610B909F101000D18FC
:1010E000B9EB050003D4C0F1FF3609F10105A5EB0A
:1010F00009002BE0B9F1010F01DA4FF001090020DE
:10110000B9F1110F0090484601DD112300E00346BC
:101110000AAA01A90CA8FFF7ABFEDDE90C704D4649
:1011200000268346207800070AD4AB4500DA5D46E6
:1011300001A8012D04DD411911F8011C302907D047
:101140004F4502DA17F1040F04DA012082460FE05E
:101150006D1EEEE7002F02DCED1B3E4403E0781C21
:10116000A84200DD7D1CB81B00F1010A4FF00047CA
:101170002078000703D4AA4501DB4FF0FF3A002195
:10118000B7F1004F0DF143088DF8431024D0022031
:101190002B23002F01DA7F422D230A21021EA0F10A
:1011A000010000DC5FB197FBF1FC97FBF1F201FB62
:1011B0001C7C17460CF1300C08F801CDEEE7A8F1C5
:1011C000010003702188090501D5452100E0652152
:1011D000A0F1010800F8011C09980FA9A1EB08076C
:1011E000FF1D00B10120411901EBEA70A1693844EB
:1011F000081A401EA0612078C00602D42046FFF7DE
:101200005DFC099828B1D4E901219047206A401C6F
:1012100020622078C00622D52046FFF74FFC1EE052
:10122000002E04DBB34502DD01A8805D00E0302024
:10123000D4E901219047206A401C2062761CAAF163
:1012400001005FEA000A0AD100F048F8C0680168AE
:10125000405CD4E901219047206A401C2062281E8E
:10126000A5F10105DCDC07E0D4E9012118F8010B48
:101270009047206A401C2062381EA7F10107F3DC6A
:101280002046FFF731FC032011B041E610B5436959
:1012900013B1AFF3008001E0FFF737FC012010BD70
:1012A000127800F124010A7000224A700122EDE751
:1012B00011684FF0FF32E9E7074B70B50D467B44EC
:1012C00000F05BF80446284600F01CF910B14FF01E
:1012D000FF3070BD204670BDBB5200000048704713
:1012E0005003002030B5B0F10A024FEA900E71F1C0
:1012F00000034EEA817EB0EB0E0061EB91014FEAF4
:10130000101E4EEA017E10EB0E0041EB11114FEA68
:10131000102E4EEA016E10EB0E0041EB11214FEA48
:10132000104E4EEA014E10EB0E0041EB11414018F9
:1013300041F100014FEAD00040EA41704FEAD1018B
:1013400010EB80054FEA810444EA907444EB0104F9
:101350006D1944EB0404521BA3414FF0000348BF36
:101360000A3200D530BD401C41F1000130BD000003
:1013700001694A1C02610878704700B58FB0CDE959
:1013800001310021059105497944CDE90310114649
:101390006846FFF74BFC0FB000BD0000E5FFFFFF04
:1013A0002DE9F0411F46044603260168072A01F48F
:1013B000006004DB08B116A505E016A503E008B13E
:1013C00015A500E015A521F010002060A069C01E41
:1013D000A0610FB1401EA0612046FFF76FFB4FB127
:1013E000D4E9012138469047206A401C2062C01C85
:1013F000206206E0206AFAE7D4E9012115F8010B22
:101400009047761EF8D22046FFF76EFBBDE8F081CC
:101410004E414E006E616E00494E4600696E660098
:101420002DE9F047814616468AB0354878440DC804
:101430008DE80D0032487844801C03AC0DC884E868
:101440000D0041F69B300844372190FBF1F290FBF0
:10145000F1F5A5F1800501FB12041B3C02D56442A5
:10146000012000E00020DFF898A080460027FA4421
:10147000AAF1BE0A0EE0E0070AD03246684607EB42
:10148000470101230AEB810100F037FB8DE80700DB
:1014900064107F1C002CEED1194F7F44AE3F19E041
:1014A000E80715D007EB04100DF1180A90E80E00BC
:1014B0008AE80E00C068F04201D1981908903246BF
:1014C000012306A903A800F018FB03AB83E807007B
:1014D0006D10641C002DE3D14FF0010332466946C4
:1014E000B8F1000F03A802D000F0F2FA01E000F01A
:1014F00004FBC9E90001C9F808200AB0BDE8F0877B
:10150000A8650000007B00F080007047004870472D
:10151000300300207546FFF7F9FFAE460500694627
:10152000534620F00700854618B020B5FEF75CFF53
:10153000BDE820404FF000064FF000074FF00008D4
:101540004FF0000B21F00701AC46ACE8C009ACE855
:10155000C009ACE8C009ACE8C0098D46704710B5B9
:101560000446AFF300802046BDE81040FEF719BFE7
:101570004FF0013C50F8042B51F8043B9A4215D12E
:10158000A2EB0C03934313EACC130BD150F8042BBA
:1015900051F8043B9A4209D1A2EB0C03934313EA9E
:1015A000CC13E7D04FF00000704700BFD01A01BA4B
:1015B000B1FA81F101F0180122FA01F0CB40C1F13A
:1015C0002001DBB2C0B2C01A2CFA01F3D11A914348
:1015D00011EAC311E6D170475FEA400C08BF91F0F1
:1015E000000F4FEA8C234FEAC12243EA51514FEAE0
:1015F0001C5018BF00F5F0404FEA300018BF41F012
:1016000000415FEA6C5C00F02980BCF1FF3F08BF3D
:1016100040F080407047130C06BF12044FF0100CCE
:101620004FF0000C130E04BF12020CF1080C130F44
:1016300004BF12010CF1040C930F04BF92000CF1D3
:10164000020CD30F04BF52000CF1010C11464FF0F5
:101650000002A0F11F00A0EB0C00704711F0004F3A
:1016600008BF704731F000413FF4D5AF0B0C06BF07
:1016700009044FF0100C4FF0000C0B0E04BF0902D0
:101680000CF1080C0B0F04BF09010CF1040C8B0FBB
:1016900004BF89000CF1020CCB0F04BF49000CF110
:1016A000010CCCF12003A0EB0C0022FA03F302FAA8
:1016B0000CF241EA030100F10100704720F07F4C79
:1016C00080EA030023F07F47ACEB070303F57C536C
:1016D00000F0004003F1FF032DE980494FEA154B6C
:1016E00009B44FEA144325EA0B4E24EA03480FF2EB
:1016F000042606EB132749083E785FEA320203FB13
:101700000667C7F5000707FB06F64FEA54374FEAAE
:10171000D64606F1020607FB066CCCF1005C4FEAE8
:101720001C472CEA074C07FB06F40CFB06F504EB00
:1017300015464FEA961634BF00204FF000404FEA9E
:10174000D13706FB07FC4FEA1C4C0CFB0BF7D21BF6
:1017500003FB0CF761EB07010CFB0EF7B0EB074046
:1017600072EB17420CFB08F734BFA2EB0742B2EB57
:10177000074261EB17414FEA0C444FEA910706FB21
:1017800007FC4FEA1C4C0CFB0BF7B0EBC74072EBAD
:10179000573203FB0CF734BFA2EBC742B2EBC74290
:1017A00061EB57310CFB0EF7B0EBC70072EB5772D1
:1017B0000CFB08F734BFA2EBC702B2EBC70261EB28
:1017C0005771039F4FEA816141EA921104EBCC0407
:1017D0004FEAD1374FEA826206FB07FC42EA9012D9
:1017E0004FEA80604FEA1C4C0CFB0BF7D21B03FB4B
:1017F0000CF761EB07010CFB0EF7B0EB074072EB47
:1018000017420CFB08F734BFA2EB0742B2EB0742CA
:1018100061EB17414FEA8C554FEA910704EB9C248A
:1018200006FB07FC4FEA1C4C0CFB0BF7B0EBC74068
:1018300072EB573203FB0CF734BFA2EBC742B2EB9B
:10184000C74261EB57310CFB0EF7B0EBC70072EBF0
:1018500057720CFB08F734BFA2EBC702B2EBC7020A
:1018600061EB577115EB4C254FEA816141EA92110A
:101870004FEA82624FEAD13742EA901206FB07FC38
:1018800044F100044FEA80604FEA1C4C0CFB0BF75C
:10189000D21B03FB0CF761EB07010CFB0EF7B0EB5F
:1018A000074072EB17420CFB08F734BFA2EB07426C
:1018B000B2EB074261EB174115EB1C154FEA813182
:1018C00041EA92414FEA823242EA90424FEA803046
:1018D0004FEA0C7644F1000448EA03434EEA0B4811
:1018E0004FF0000EB2EB080C71EB030724BF624609
:1018F00039464EEB0E0E4FF0000B00185241494195
:101900004BEB0B0BB2EB080C71EB03077BF1000BFD
:1019100024BF624639464EEB0E0E4FF0000B001806
:10192000524149414BEB0B0BB2EB080C71EB030737
:101930007BF1000B24BF624639464EEB0E0E51EA96
:10194000020718BF46F0010616EB0E7655F10002AD
:1019500054F1000103D5BDE88901BDE80088BDE868
:101960008901BDE80048B619524141EB0101A3F1DC
:101970000103704780807F7E7D7C7B7A79787776E3
:1019800076757473727171706F6E6E6D6C6C6B6A5C
:101990006A696868676666656464636362616160FA
:1019A000605F5F5E5E5D5D5C5C5B5B5A5A59595877
:1019B00058575756565555555454535352525251E1
:1019C000515050504F4F4F4E4E4D4D4D4C4C4C4B37
:1019D0004B4B4A4A4A49494948484847474747467E
:1019E00046464545454444444443434343424242BA
:1019F00042414141002B9C4630D477002BD01CB58E
:101A00004FEA370703B44FF010004FF01001BAF15E
:101A1000000F06D0BCF1000FDCBF40F0080040F022
:101A2000080105F06BFF0FBCBDE810400BF1010B86
:101A3000BBF1010F08BF5FEA170722BF12F10102D5
:101A400011F101014FF0004143F1000300F00040AB
:101A500043EA00007047F9D35708D0E746EA064644
:101A600013F1400F4FEA16461FDD13F1200FDFBFC1
:101A700016430A46002120335B42BED0C3F1200743
:101A800046EA064602FA07F74FEA164646EA07060E
:101A9000C3F1200722FA03F201FA07F721FA03F152
:101AA0004FF0000342EA0702A7E746EA020646EAC9
:101AB00006464FEA164646EA0106BCBF46EA064617
:101AC000360C4FF000034FF000024FF0000194E796
:101AD0002DE9804C9A46934670B491E8380007C8C7
:101AE00031EA400C48BF34EA430C03D5FFF7E6FD6A
:101AF000FFF780FFF0BCBDE8008C2DE9804C9A46D2
:101B0000934670B491E8380007C810F0804F08BFC2
:101B100013F0804F03D100F005F8FFF76BFFF0BC26
:101B2000BDE8008C20F07F4780EA030023F07F4C63
:101B300007EB0C03A3F57C5300F00040A3F1FE0378
:101B400092F0000F00F0B38095F0000F00F0778066
:101B50002DE901494FEA11404FEA144621EA0048B5
:101B600000FB06FC24EA064708FB06F607FB08F81C
:101B700000FB07F718EB06484CEB164C4FEA124BEC
:101B800018EB07484FEA15464CEB174022EA0B4E7C
:101B90000BFB06FC25EA06470EFB06F607FB0EFECE
:101BA0000BFB07F71EEB064E4CEB164C4FF00006F6
:101BB0001EEB074E4CEB174B18EB0B0840F10000E7
:101BC00018EB0E0B58EB000840F100008F1A4FF095
:101BD00000013CBFC943661B14BFB5EB040C0021D8
:101BE0003CBFC943F61B4FEA17444EEA8E0E27EA64
:101BF00004454FEA1C4704FB07622CEA074C05FB2F
:101C000007F70CFB05F604FB0CFC16EB074642EB52
:101C1000174216EB0C4642EB1C421BEB060658EB38
:101C20000202414146EA9E0601D5BDE80189B61986
:101C3000524141EB0101A3F10103BDE801894FEAE3
:101C400014454FEA114724EA054621EA074C05FBF3
:101C500007F406FB07F70CFB06F105FB0CFC11EB88
:101C6000074144EB17444FEA124711EB0C4144EB98
:101C70001C4422EA074C05FB07F206FB07F70CFBA6
:101C800006F605FB0CFC16EB074642EB174216EB7B
:101C90000C4642EB1C456A1854F1000148BF7047DE
:101CA000B619524141EB0101A3F10103704795F0D0
:101CB000000F37D04FEA11424FEA144721EA02469B
:101CC00024EA074C02FB07F106FB07F70CFB06F4BE
:101CD00002FB0CFC14EB074441EB17414FEA15479C
:101CE00014EB0C4441EB1C4125EA074C02FB07F5C1
:101CF00006FB07F70CFB06F602FB0CFC16EB07468F
:101D000045EB174516EB0C4645EB1C42121951F1F9
:101D1000000148BF7047B619524141EB0101A3F1E0
:101D2000010370474FEA14454FEA114724EA05467C
:101D300021EA074C05FB07F106FB07F70CFB06F24F
:101D40004FF0000605FB0CFC12EB074241EB17417C
:101D500012EB0C4251EB1C4148BF7047921841EB0B
:101D60000101A3F1010370471CB52348006840F04E
:101D70000200214908600846006840F00800086039
:101D80000120032100230246CDE900104FF4E04179
:101D90001A4801F05AFE0120032100230246CDE932
:101DA00000104FF4E061164801F04FFE00224FF49E
:101DB0008051124801F042FE00224FF400510F48BA
:101DC00001F03CFE00224FF480410C4801F036FE49
:101DD00000224FF480710A4801F030FE00224FF4D7
:101DE0000071074801F02AFE00224FF48061044888
:101DF00001F024FE1CBD0000E0440258000402581B
:101E0000000C02582DE9F04704460E4617461D46C1
:101E1000DDE9088922464FF480511D4801F00EFE8D
:101E200032464FF400511A4801F008FE3A464FF48A
:101E30008041174801F002FE2A464FF48071154890
:101E400001F0FCFD42464FF40071124801F0F6FD2E
:101E50004A464FF480610F4801F0F0FD21460EA084
:101E6000FEF720FE314610A0FEF71CFE394612A0F8
:101E7000FEF718FE294614A0FEF714FE414616A0F0
:101E8000FEF710FE494618A0FEF70CFEBDE8F087ED
:101E900000040258000C0258494F5F5357335F410A
:101EA000303A25640D0A0000494F5F5357335F41B4
:101EB000313A25640D0A0000494F5F5357335F41A3
:101EC000323A25640D0A0000494F5F5357345F4191
:101ED000303A25640D0A0000494F5F5357345F4183
:101EE000313A25640D0A0000494F5F5357345F4172
:101EF000323A25640D0A000010B500224FF400614B
:101F0000054801F09BFDC02003F0E0FE0122D10254
:101F1000014801F093FD10BD0010025810B50446B1
:101F200000224FF40061124801F088FD34B1012C09
:101F300009D0022C0CD0032C13D10EE042F2280061
:101F400003F0C4FE0DE042F2020003F0BFFE08E021
:101F50004FF4005003F0BAFE03E0C02003F0B6FED9
:101F600000BF00BF0122D102014801F067FD10BD92
:101F7000001002582DE9F04106464FF0000800EE2F
:101F8000106AB8EE400B9FED191B20EE010BBCEE62
:101F9000C00B10EE107ABCB2C7F38F35B8F1000F4A
:101FA00008D124F4004444F4804425F4004545F469
:101FB000804507E024F4804444F4004425F480453F
:101FC00045F4004500224FF400610A4801F036FD57
:101FD000204603F07BFE284603F078FE0122D10262
:101FE000044801F02BFDBDE8F08100003A8C30E29E
:101FF0008E792540001002581CB51448006840F442
:1020000000601249086001200090002302464FF44E
:10201000F06101900E4801F018FD002280210C486B
:1020200001F00CFD00224FF48071094801F006FD1B
:1020300000224FF40071064801F000FD00224FF429
:102040008061034801F0FAFC1CBD0000E044025826
:10205000001C02582DE9F0470546894616461C46E5
:10206000DDE90878B748006840F00100B54908602C
:10207000B4480838006840F02000B24908390860C8
:102080000846006840F001000860AE48143000685F
:1020900040F00200AB4914310860AB48006840F0E2
:1020A0000F00A94908600846C06820F00F00C8600A
:1020B000A648006840F04070A4490860A148603814
:1020C000006840F020009F496039086008460068B9
:1020D00020F0200008609B488838006820F44030D9
:1020E0009849883908600846006840F40030086064
:1020F000974800689749C1F808030846806820F0AF
:10210000005088600846806840F0805088600A204F
:1021100004F0CAF98F48806840F480708D49886067
:102120000846D0F8C00040F00200C1F8C0000846E0
:10213000C06940F00300C8610846C06820F01C0078
:10214000C860012C01D0012F34D1B9F5806F04DBB8
:1021500081A0FEF7A7FC4FF000090B2E02DD88A03E
:10216000FEF7A0FC012C02DD8EA0FEF79BFC012FE8
:1021700002DD95A0FEF796FC0020764908614FEA43
:10218000094040EA461040EA4400384309690843E0
:1021900070490861494695A0FEF784FC314696A037
:1021A000FEF780FC214697A0FEF77CFC394698A0FC
:1021B000FEF778FC6748C06840F400506549C86085
:1021C0000846C06840F00100C8600846C06840F09A
:1021D0000200C860B8F5F04F04D94FF4F0488FA062
:1021E000FEF760FC9248C0F80080414691A0FEF7DF
:1021F00059FC082D25D2DFE805F004080C1014184E
:102200001C2092A0FEF74EFC20E098A0FEF74AFCAE
:102210001CE09CA0FEF746FC18E0A0A0FEF742FCE4
:1022200014E0A4A0FEF73EFC10E0A8A0FEF73AFCE4
:102230000CE0ACA0FEF736FC08E0B1A0FEF732FCE3
:1022400004E00025B5A0FEF72DFC00BF00BF41480B
:10225000406920F038003F4948610846406940EA3B
:10226000C50048610846006B20F4F8600863084622
:10227000006B40F0400008630846806840F08040F2
:1022800088600846806840F480308860084680682E
:1022900040F00040886000BF2E48806800F0004099
:1022A0000028F9D1A848806A20F00100A649886278
:1022B00000BFA548806A00F001000028F9D1A248BB
:1022C000806840F47460A049886009209F490860D4
:1022D000204840309C4908639D4848630846C0F840
:1022E0002C80002088629B4888620846806A40F003
:1022F000010088621748006840F001001549086035
:102300000846806840F00100886000BF11480068FE
:1023100000F001000028F9D00E48806840F0040069
:102320000C49886042488C49026847F6FF70FEF706
:1023300097FA3F4801688948B0EE040AFEF744FA6C
:10234000BDE8F087E0440258000002580404005839
:1023500008230240002002404F53565220657272FB
:102360002C73686F756C6420626520307E3130326A
:10237000332C73657420746F20300D0A0000000048
:102380004F565353206572722C73686F756C6420BE
:10239000626520307E31312C73657420746F20307B
:1023A0000D0A00004A4F565345206572722C73681F
:1023B0006F756C6420626520307E312C73657420EB
:1023C000746F20300D0A0000524F5653452065723D
:1023D000722C73686F756C6420626520307E312CBE
:1023E00073657420746F20300D0A00004F535652ED
:1023F0003A25640D0A0000004F5653533A25640DE8
:102400000A0000004A4F5653453A25640D0A000061
:10241000524F5653453A25640D0A00004144435F2C
:102420006275666665723C3D33304B420D0A0000B2
:10243000240000204144435F4255464645525F53C5
:10244000495A453A25640D0A00000000312E352016
:1024500041444320636C6F636B206379636C6573E5
:102460002864656661756C74290D0A00322E35206A
:1024700041444320636C6F636B206379636C6573C5
:102480000D0A0000382E352041444320636C6F63F1
:102490006B206379636C65730D0A000031362E354D
:1024A0002041444320636C6F636B206379636C65E8
:1024B000730D0A0033322E352041444320636C6F84
:1024C000636B206379636C65730D0A0036342E35B7
:1024D0002041444320636C6F636B206379636C65B8
:1024E000730D0A003332372E352041444320636C8C
:1024F0006F636B206379636C65730D0A00000000E5
:102500003831302E352041444320636C6F636B209B
:102510006379636C65730D0A0000000073696D7068
:102520007220657272212073686F756C6420626519
:1025300020307E372C73657420746F2030206E6FCE
:1025400077210D0A0000000000000240040802404C
:102550000000003000ACA10000F0003000D00224E8
:1025600030B52DED048B87B0054600240020069081
:10257000059008EE100A9FED560AB0EE409A022D23
:1025800010D100BF06E0534830F9141052A0FEF7F6
:1025900089FA641C514800688442F4D350A0FEF7C5
:1025A00081FA8BE0012D21D1002417E0494830F851
:1025B000140080B2A0F5004008EE100AB8EEC80A78
:1025C000DFED480A20EE200AB0EE409AB7EEC90AC5
:1025D00053EC102B44A0FEF765FA641C3F480068DA
:1025E0008442E3D33EA0FEF75DFA67E04048806A8C
:1025F00020F001003E49886200BF3D48806A00F03B
:1026000001000028F9D1354800683949C8620846F8
:10261000806A40F0010088623648006840F004009B
:10262000344908600846806840F00400886000BFB4
:102630002F48006800F400600028F9D04FF40060D3
:102640002B49886025482C4A2C4903682148FDF70E
:10265000DFFE22482A4902682748FEF749F91F4849
:10266000284A27490368A1F5F030FDF7F7FE06ABCD
:1026700004AA1A4801682348FDF760FF05AB03AAC6
:10268000164801681F48FDF7C0FF02AA13480168F9
:102690001C48FEF721F89DED040ADDED030A70EEFB
:1026A000608A9DED020AB7EEC00A8DED000BB7EE11
:1026B000E80A53EC102B14A0FEF7F4F90748016860
:1026C000044803F0C3F807B0BDEC048B30BD000034
:1026D000000000000000003025642C0024000020D1
:1026E0000D0A00000000A03825302E34662C0000B2
:1026F00000000240002002400000002400F00030F2
:1027000000B0042400F000245670703A25302E34B6
:10271000662C526D733A25302E34660D0A00000087
:1027200010B52DED028B84B000249FED2E0AB0EE83
:10273000408A9FED2C0AF0EE408A2B48007800F08A
:10274000010020B1B0EE040AF0EE408A03E09FEDF4
:10275000270AF0EE408A2448007800F0020018B9F9
:102760000821802001F0E1FE0A2003F09DFE00BF59
:1027700002211F4801F05AF90028F9D1032303AAC6
:1027800010210090802001F039FD9DF80C0000061A
:102790009DF80D1040EA01409DF80E1040EA01241A
:1027A000241200EE104AF8EEC00A9FED121A80EED5
:1027B000810A20EE280AB0EE408A9DF80E009DF8AE
:1027C0000D109DF80C20B7EEC80ACDE9002102904B
:1027D00053EC102B08A0FEF765F904B0BDEC028B9A
:1027E00010BD000000000000050000206F12034033
:1027F000001802580000004B414453313231395F18
:10280000526561643A25302E346656202052415775
:102810003A25303258202530325820253032580D94
:102820000A0000002DE9FC4104460D4616461F46ED
:10283000DDF820806548006840F04000634908608A
:10284000012000210B460246CDE9001001466048F8
:1028500001F0FBF80120002103460A46CDE90010F3
:1028600002215B4801F0F1F801221146584801F0BD
:10287000E5F800222821802001F032FC00F07F00E2
:10288000544908700846017853A0FEF70BF9082C4C
:1028900025D2DFE804F004080C1014181C2054A002
:1028A000FEF700F920E05DA0FEF7FCF81CE063A055
:1028B000FEF7F8F818E069A0FEF7F4F814E06FA04E
:1028C000FEF7F0F810E075A0FEF7ECF80CE07BA046
:1028D000FEF7E8F808E081A0FEF7E4F804E0002441
:1028E00088A0FEF7DFF800BF00BF15B1012D08D1A9
:1028F00003E08EA0FEF7D6F808E093A0FEF7D2F82A
:1029000004E0002595A0FEF7CDF800BF00BF36B16A
:10291000012E08D0022E0AD0032E10D10BE099A070
:10292000FEF7C0F810E09DA0FEF7BCF80CE09FA0F9
:10293000FEF7B8F808E0A1A0FEF7B4F804E000261E
:10294000A2A0FEF7AFF800BF00BF17B1012F08D15A
:1029500003E0A8A0FEF7A6F808E0B1A0FEF7A2F8F1
:1029600004E00027B7A0FEF79DF800BF00BFB8F154
:10297000000F03D0B8F1010F08D103E0BBA0FEF7B0
:1029800091F809E0C748FEF78DF805E04FF0000820
:10299000C5A0FEF787F800BF00BF600140EA051040
:1029A00040EA860040EA470040EA0800C84908704B
:1029B0000023084602784021802001F07FFD082195
:1029C000802001F0B2FDBDE8FC810000E044025827
:1029D0000018025804000020414453313231395F5D
:1029E00049443A307825302E32580D0A0000000054
:1029F0004D5558303A41494E50203D2041494E30C6
:102A00002C2041494E4E203D2041494E3120286422
:102A1000656661756C74290D0A0000004D555831CA
:102A20003A41494E50203D2041494E322C204149E7
:102A30004E4E203D2041494E330D0A004D5558322F
:102A40003A41494E50203D2041494E312C204149C8
:102A50004E4E203D2041494E320D0A004D5558330F
:102A60003A41494E50203D2041494E302C204149A9
:102A70004E4E203D2041474E440D0A004D555834DE
:102A80003A41494E50203D2041494E312C20414988
:102A90004E4E203D2041474E440D0A004D555835BD
:102AA0003A41494E50203D2041494E322C20414967
:102AB0004E4E203D2041474E440D0A004D5558369C
:102AC0003A41494E50203D2041494E332C20414946
:102AD0004E4E203D2041474E440D0A004D5558377B
:102AE0003A41494E5020616E642041494E4E207358
:102AF000686F7274656420746F20415644442F32AD
:102B00000D0A00006D757820657272212073686F60
:102B1000756C6420626520307E372C736574207478
:102B20006F2030206E6F77210D0A00004741494E1B
:102B300078313A4761696E203D203120286465660E
:102B400061756C74290D0A004741494E78343A4743
:102B500061696E203D2034200D0A00006761696EB6
:102B600020657272212073686F756C642062652025
:102B7000307E312C73657420746F2030206E6F7737
:102B8000210D0A004452303A32302053505320284D
:102B900064656661756C74290D0A00004452313A0F
:102BA0003930205350530D0A000000004452323A8D
:102BB000333330205350530D0A0000004452333A4F
:102BC00031303030205350530D0A000064722065BC
:102BD0007272212073686F756C6420626520307E8C
:102BE000332C73657420746F2030206E6F77210D45
:102BF0000A000000434D303A53696E676C652D73CF
:102C0000686F7420636F6E76657273696F6E206D86
:102C10006F6465202864656661756C74290D0A000F
:102C2000434D313A436F6E74696E756F75732063EF
:102C30006F6E76657273696F6E206D6F64650D0AD5
:102C400000000000636D20657272212073686F754B
:102C50006C6420626520307E312C73657420746F43
:102C60002030206E6F77210D0A0000005652454635
:102C7000303A496E7465726E616C20322E30343891
:102C80002D56207265666572656E63652073656C8E
:102C90006563746564202864656661756C74290DCC
:102CA0000A000000F079000876726566206572728D
:102CB000212073686F756C6420626520307E312C32
:102CC00073657420746F2030206E6F77210D0A00B9
:102CD0000500002010B502F045FC002019490860ED
:102CE00048600846006840F0807008600846006848
:102CF00040F4407008600846406840F4B0104860F6
:102D00000846406840F4007048600846006840F09B
:102D100001000860662002F0DFFA992002F0DCFA78
:102D20004FF47A7003F0C0FB642003F0BDFB052272
:102D30000549002002F030F805220449002002F085
:102D400009F810BD00500052060000200B000020C2
:102D50002DE9F04104460D4616461F46102D1FD2A0
:102D6000DFE805F0081F354B60778DA3B8CFE5FD90
:102D7000FCFBFAF900224FF48041FB4800F05EFEB4
:102D800000224FF40041F84800F058FE00220121D3
:102D9000F54800F053FE00220221F34800F04EFEF9
:102DA0004EE101229103F04800F048FE00224FF46A
:102DB0000041ED4800F042FE00220121EA4800F007
:102DC0003DFE00220221E84800F038FE38E10022F2
:102DD0004FF48041E44800F031FE0122D103E24883
:102DE00000F02CFE00220121DF4800F027FE002227
:102DF0000221DD4800F022FE22E101229103DA489F
:102E000000F01CFE0122D103D74800F017FE00227B
:102E10000121D54800F012FE00220221D24800F024
:102E20000DFE0DE100224FF48041CF4800F006FE78
:102E300000224FF40041CC4800F000FE0122114670
:102E4000C94800F0FBFD00220221C74800F0F6FD52
:102E5000F6E001229103C44800F0F0FD00224FF497
:102E60000041C14800F0EAFD01221146BE4800F0D1
:102E7000E5FD00220221BC4800F0E0FDE0E0002278
:102E80004FF48041B84800F0D9FD0122D103B64883
:102E900000F0D4FD01221146B34800F0CFFD00221E
:102EA0000221B14800F0CAFDCAE001229103AE48F8
:102EB00000F0C4FD0122D103AB4800F0BFFD0122A8
:102EC0001146A94800F0BAFD00220221A64800F0F0
:102ED000B5FDB5E000224FF48041A34800F0AEFDFF
:102EE00000224FF40041A04800F0A8FD002201217B
:102EF0009D4800F0A3FD012202219B4800F09EFDA9
:102F00009EE001229103984800F098FD00224FF4C2
:102F10000041954800F092FD00220121924800F006
:102F20008DFD01220221904800F088FD88E00022FA
:102F30004FF480418C4800F081FD0122D1038A4882
:102F400000F07CFD00220121874800F077FD01227E
:102F50000221854804E05EE047E030E018E002E04E
:102F600000F06CFD6CE0012291037F4800F066FDEB
:102F70000122D1037C4800F061FD002201217A4842
:102F800000F05CFD01220221774800F057FD57E078
:102F900000224FF48041744800F050FD00224FF4AD
:102FA0000041714800F04AFD012211466E4800F0D0
:102FB00045FD012202216C4800F040FD40E0012265
:102FC0009103694800F03AFD00224FF40041664841
:102FD00000F034FD01221146634800F02FFD01226C
:102FE0000221614800F02AFD2AE000224FF48041CE
:102FF0005D4800F023FD0122D1035B4800F01EFD77
:1030000001221146584800F019FD012202215648BC
:1030100000F014FD14E001229103534800F00EFD6E
:103020000122D103504800F009FD012211464E480B
:1030300000F004FD012202214B4800F0FFFC00BF1C
:1030400000BF294649A0FDF72DFD05F0010149A06B
:10305000FDF728FDC5F340014AA0FDF723FDC5F3A8
:1030600080014CA0FDF71EFDC5F3C0014DA0FDF78A
:1030700019FD052E5BD2DFE806F00315273849005D
:10308000002280214B4800F0D9FC00224FF48071CF
:10309000484800F0D3FC00224FF40071454800F08E
:1030A000CDFC44E001228021424800F0C7FC002210
:1030B0004FF480713F4800F0C1FC00224FF40071D2
:1030C0003C4800F0BBFC32E000228021394800F08F
:1030D000B5FC01221102374800F0B0FC00224FF489
:1030E0000071344800F0AAFC21E00122802131481F
:1030F00000F0A4FC012211022E4800F09FFC0022E7
:103100004FF400712B4800F099FC10E00022802160
:10311000284800F093FC00224FF48071254800F00D
:103120008DFC01225102234800F088FC00BF00BF43
:10313000314621A0FDF7B6FC06F0010120A0FDF705
:10314000B1FCC6F3400122A0FDF7ACFCC6F3800140
:1031500023A0FDF7A7FC34B1012C60D0022C75D060
:10316000032C5BD189E043E0000C025861783A25DA
:10317000640D0A00494F5F5357415F4158313A256A
:10318000640D0A00494F5F5357415F4158323A2559
:10319000640D0A00494F5F5357415F4158333A2548
:1031A000640D0A00494F5F5357415F4158343A2537
:1031B000640D0A000010025861793A25640D0A0076
:1031C000494F5F5357415F4159313A25640D0A0019
:1031D000494F5F5357415F4159323A25640D0A0008
:1031E000494F5F5357415F4159333A25640D0A00F7
:1031F000012280214D4800F021FC00224FF4807113
:103200004B4800F01BFC002240214A4800F016FC0D
:1032100000224FF48051474800F010FC43E00022A8
:103220008021424800F00AFC01221102404800F0CF
:1032300005FC002240213F4800F000FC00224FF432
:1032400080513C4800F0FAFB2DE0FFE7002280218E
:10325000364800F0F3FB00224FF48071344800F050
:10326000EDFB01224021334800F0E8FB00224FF43F
:103270008051304800F0E2FB15E0002280212B480D
:1032800000F0DCFB00224FF48071294800F0D6FBEF
:1032900000224021274800F0D1FB012211032548DC
:1032A00000F0CCFB00BF00BF611C23A0FDF7FAFBC0
:1032B0000120A040C4B204F0010121A0FDF7F2FBFF
:1032C000C4F3400122A0FDF7EDFBC4F3800124A06C
:1032D000FDF7E8FBC4F3C00125A0FDF7E3FB0120E7
:1032E00003F0E2F82FB101229102254800F0A6FB7D
:1032F00005E000224FF48061214800F09FFB394631
:1033000020A0FDF7CFFB01222021084800F096FB0A
:1033100020A0FDF7C7FB00222021044800F08EFB0F
:1033200020A0FDF7BFFBBDE8F0810000000C0258B3
:10333000000802580018025863733A25640D0A0009
:10334000494F5F5357415F4353313A25640D0A009B
:10335000494F5F5357415F4353323A25640D0A008A
:10336000494F5F5357415F4353333A25640D0A0079
:10337000494F5F5357415F4353343A25640D0A0068
:1033800000100258494F5F5357415F4441543A255A
:10339000640D0A00494F5F5357415F5354423A311D
:1033A0000D0A0000494F5F5357415F5354423A3072
:1033B0000D0A000010B5012240213A4800F03EFB02
:1033C00039A0FDF76FFB002280213B4800F036FB5F
:1033D00000224FF48071394800F030FB0022402178
:1033E000374800F02BFB00224FF48051344800F0A6
:1033F00025FB34A0FDF756FB36A0FDF753FB39A0A3
:10340000FDF750FB3BA0FDF74DFB00224FF4804140
:10341000294800F013FB00224FF40041264800F039
:103420000DFB00220121244800F008FB00220221AC
:10343000214800F003FB33A0FDF734FB35A0FDF776
:1034400031FB38A0FDF72EFB3AA0FDF72BFB002245
:103450008021144800F0F2FA00224FF480711148E4
:1034600000F0ECFA00224FF400710E4800F0E6FA8A
:1034700034A0FDF717FB37A0FDF714FB39A0FDF7CB
:1034800011FB002220210C4800F0D8FA39A0FDF7EA
:1034900009FB00224021034800F0D0FA39A0FDF7D3
:1034A00001FB10BD00100258494F5F5357415F5256
:1034B00053543A310D0A0000000C0258000802581B
:1034C00000180258494F5F5357415F4353313A3018
:1034D0000D0A0000494F5F5357415F4353323A3062
:1034E0000D0A0000494F5F5357415F4353333A3051
:1034F0000D0A0000494F5F5357415F4353343A3040
:103500000D0A0000494F5F5357415F4158313A302F
:103510000D0A0000494F5F5357415F4158323A301E
:103520000D0A0000494F5F5357415F4158333A300D
:103530000D0A0000494F5F5357415F4158343A30FC
:103540000D0A0000494F5F5357415F4159313A30EE
:103550000D0A0000494F5F5357415F4159323A30DD
:103560000D0A0000494F5F5357415F4159333A30CC
:103570000D0A0000494F5F5357415F5354423A30A0
:103580000D0A0000494F5F5357415F5253543A3080
:103590000D0A00001CB51F48006840F004001D49DA
:1035A00008600846006840F00800086008460068A7
:1035B00040F0100008600846006840F040000860D5
:1035C000012000900023024601020190124800F001
:1035D0003CFA01200090002302464CF2A301019026
:1035E0000E4800F032FA01200090002302464FF40A
:1035F000F86101900A4800F028FA012000900023A9
:1036000002464FF482510190064800F01EFAFFF77F
:10361000D1FE1CBDE044025800080258000C0258BC
:10362000001002580018025810B502F0D1F802F04C
:1036300081F80348006840F004000149086010BDAB
:103640009CEF00E01CB52F48006840F000502D4969
:1036500008602C480838006840F001002949083902
:103660000860012000210B460322CDE90010302123
:10367000254800F0EAF9002024490860081D006888
:1036800020F00700091D0860084600680860084629
:10369000006820F4E0200860084600680860002008
:1036A0001A4938390860084600680860084600680A
:1036B0000860084600680860084600680860084618
:1036C00000680860084600680860084600680860EE
:1036D00008460068086008460068086008460068F8
:1036E00008600846006840F001000860084600686D
:1036F00040F48030086000200449183908600860F0
:103700001CBD0000E8440258000002583874004014
:103710001CB50D48006840F400700B49086001209A
:103720000090002302460C210190084800F08DF91A
:1037300001220421054800F081F9012208210348F3
:1037400000F07CF91CBD0000E0440258002402583F
:1037500010B5044634B1012C12D0022C1ED0032C1B
:1037600038D129E000220421204800F067F9002226
:1037700008211E4800F062F91DA0FDF793F929E029
:1037800001220421194800F059F9002208211748A4
:1037900000F054F91AA0FDF785F91BE0002204217E
:1037A000124800F04BF901220821104800F046F9B8
:1037B00017A0FDF777F90DE0012204210B4800F076
:1037C0003DF901220821094800F038F915A0FDF75C
:1037D00069F900BF00BF04F0010116A0FDF762F90E
:1037E000C4F3400117A0FDF75DF910BD0024025895
:1037F0003735304BA6B82073656C6563740D0A00CD
:1038000032344BA6B82073656C6563740D0A0000F2
:10381000322E34394BA6B82073656C6563740D0A7B
:1038200000000000323433A6B82073656C65637401
:103830000D0A0000494F5F5357355F413A25640D2B
:103840000A000000494F5F5357355F423A25640D27
:103850000A00000070B505460C46002600EE104A2E
:10386000F8EE400A9FED131A81EE200ADFED120AEE
:1038700080EE801ABCEEC10A10EE106A55B10F48F6
:1038800000686FF30F000D49086008460068304378
:10389000086009E00948006880B2084908600846E5
:1038A000006840EA064008602246294604A0FDF769
:1038B000F9F870BD00401C4500F07F4520740040C1
:1038C0004C5F523A256420766F6C3A25640D0A00ED
:1038D0001CB50E48006840F008000C490860012043
:1038E000032100230246CDE900100903084800F037
:1038F000ACF800224FF48051054800F09FF80022F8
:103900004FF40051024800F099F81CBDE044025801
:10391000000C025870B504460D46012C00DD012450
:10392000012D00DD012522464FF48051084800F0AA
:1039300085F82A464FF40051054800F07FF82146EB
:1039400004A0FDF7AFF8294607A0FDF7ABF870BD5E
:10395000000C02584469734368617267654A315FBD
:10396000656E3A25640D0A004469734368617267A5
:10397000654A325F656E3A25640D0A001FB500F096
:1039800043FE052202A9002002F03EFC9DF80C0037
:103990009DF80B10CDE900109DF80A309DF8092024
:1039A0009DF8081005A0FDF77DF89DF8080020B1EE
:1039B00005220D49002002F034FC1FBD307825306F
:1039C0002E325820307825302E325820307825304D
:1039D0002E325820307825302E325820307825303D
:1039E0002E32580D0A0000001000002030B5CC1017
:1039F00000F1200353F824304C07E50E0F24AC40AF
:103A0000A343CD1000F1200444F82530CC1000F180
:103A1000200353F824304C07E40E02FA04F4234345
:103A2000CD1000F1200444F8253030BD0246106965
:103A3000084008B1012070470020FCE702F00103B4
:103A40000BB1018300E0418370472DE9F0470C463C
:103A5000DDE90867002100258C4600BF60E04FF0DB
:103A6000010808FA01F504EA050CAC4557D1D0F875
:103A700000804FEA410A4FF0030909FA0AF928EADF
:103A80000908C0F80080D0F800804FEA410902FA26
:103A900009F948EA0908C0F80080012A01D0022A81
:103AA00027D1D0F808804FEA410A4FF0030909FAFC
:103AB0000AF928EA0908C0F80880D0F808804FEA17
:103AC000410906FA09F948EA0908C0F80880D0F85F
:103AD00004904FF0010808FA01F829EA0809C0F833
:103AE0000490D0F8048003FA01F948EA0908C0F804
:103AF0000480D0F80C804FEA410A4FF0030909FA1C
:103B00000AF928EA0908C0F80C80D0F80C804FEABE
:103B1000410907FA09F948EA0908C0F80C80491C6C
:103B200010299CD3BDE8F08701461448006B20F4AF
:103B3000F860124B18631846006B40EA8110186356
:103B40001846006B20F00F0018631846006840F01C
:103B5000040018601846806840F004009860084A25
:103B600000E0521E0548006800F0040008B9002A71
:103B7000F7D10248006C80B270470000002002407C
:103B8000FFFF0F002DE9F04107460C4600250026F7
:103B900008E03846FFF7C8FF0544052002F084FC22
:103BA000701CC6B2A642F4DBB5FBF4F0BDE8F081B0
:103BB00010B5002240210E48FFF740FF002280216F
:103BC0000B48FFF73BFF042002F088FC0122402154
:103BD0000748FFF733FF042002F080FC0022402159
:103BE0000348FFF72BFF042002F078FC10BD000013
:103BF000000402581CB50D48006840F002000B4953
:103C000008600120032100230246CDE90010C021F5
:103C10000748FFF71AFF012240210548FFF70EFF72
:103C2000012280210248FFF709FF1CBDE044025831
:103C30000004025810B5022002F050FC012280213D
:103C40001148FFF7FBFE022002F048FC0122402150
:103C50000D48FFF7F3FE042002F040FC0022402153
:103C60000948FFF7EBFE022002F038FC0022802119
:103C70000548FFF7E3FE022002F030FC012240215C
:103C80000148FFF7DBFE10BD0004025870B5054681
:103C900000242448006820F4404022490860084677
:103CA0000068086000261DE0002240211D48FFF743
:103CB000C5FE042002F012FC012240211948FFF742
:103CC000BDFE022002F00AFC6006040E80211548A9
:103CD000FFF7ACFE08B1601CC4B2022002F0FEFB8C
:103CE000701CC6B2082EDFDB002240210D48FFF712
:103CF000A5FE0C48006820F440400A4908600846C8
:103D0000006840F480400860002280210548FFF7E9
:103D100095FE15B9FFF78EFF01E0FFF749FF20463A
:103D200070BD0000000402582DE9F04780460C46A3
:103D300015461E46DDF82090012002F09BFB00F0A6
:103D40007DF8404600F04AF800F0B8F810B10120C4
:103D5000BDE8F087B9F1000F0CD02746E11704EB5E
:103D60001161C1F3072000F039F800F0A7F808B19D
:103D70000120EDE72746E11704EB11610912A4EBDE
:103D80000121C8B200F02AF800F098F808B101202B
:103D9000DEE700F053F808F10101C8B200F01EF8A8
:103DA00000F08CF808B10120D2E70DE0012E04D11B
:103DB0000020FFF76BFF287003E00120FFF766FF8C
:103DC0002870701E86B26D1C002EEFD100F052F8E4
:103DD000002002F04FFB0020BAE7000070B5044657
:103DE000002240211448FFF729FE00251BE0022095
:103DF00002F074FBE20980210F48FFF71FFE600606
:103E0000040E022002F06AFB012240210A48FFF75B
:103E100015FE042002F062FB002240210648FFF755
:103E20000DFE681CC5B2082DE1DB0122802102488D
:103E3000FFF704FE70BD00000004025810B5012217
:103E400040210B48FFF7FAFD022002F047FB012258
:103E500080210748FFF7F2FD022002F03FFB00221D
:103E600080210348FFF7EAFD022002F037FB10BD76
:103E70000004025810B5042002F030FB002240215B
:103E80000D48FFF7DBFD022002F028FB0022802115
:103E90000948FFF7D3FD022002F020FB0122402158
:103EA0000548FFF7CBFD022002F018FB012280211C
:103EB0000148FFF7C3FD10BD0004025810B50024EF
:103EC000022002F00BFB2548006820F44040234903
:103ED0000860084600680860022002F0FFFA01222C
:103EE00040211E48FFF7AAFD022002F0F7FA15E074
:103EF000601C84B2FA2C11DD1848006820F44040A0
:103F0000164908600846006840F480400860FFF7E2
:103F1000B1FF052002F0C8FA012010BD80210F4832
:103F2000FFF784FD0028E3D1022002F0D7FA002237
:103F300040210A48FFF782FD002280210748FFF751
:103F40007DFD0648006820F44040044908600846AA
:103F5000006840F4804008600020DEE7000402585A
:103F60002DE9F04780460C4615461E46DDF82090A8
:103F7000012002F07FFAFFF761FF4046FFF72EFFB6
:103F8000FFF79CFF10B10120BDE8F087B9F1000FE9
:103F90000CD02746E11704EB1161C1F30720FFF7AE
:103FA0001DFFFFF78BFF08B10120EDE72746E11762
:103FB00004EB11610912A4EB0121C8B2FFF70EFF57
:103FC000FFF77CFF08B10120DEE70AE02878FFF761
:103FD00005FFFFF773FF08B10120D5E7701E86B219
:103FE0006D1C002EF2D1FFF745FF052002F05CFAB0
:103FF000002002F03FFA0020C6E7000010B50022C2
:104000004FF480410E48FFF719FD00224FF40041A4
:104010000B48FFF713FD042002F060FA0122910320
:104020000748FFF70BFD042002F058FA00224FF476
:1040300080410348FFF702FD042002F04FFA10BD53
:10404000001402581CB50D48006840F020000B49D0
:1040500008600120032100230246CDE900108903F6
:104060000748FFF7F2FC012291030548FFF7E6FC41
:104070000122D1030248FFF7E1FC1CBDE0440258D5
:104080000014025810B5022002F028FA0122D103D0
:104090001248FFF7D3FC022002F020FA012291031C
:1040A0000E48FFF7CBFC042002F018FA00224FF470
:1040B00080410A48FFF7C2FC022002F00FFA0022FA
:1040C0004FF400410548FFF7B9FC022002F006FA60
:1040D000012291030148FFF7B1FC10BD0014025802
:1040E0002DE9F04106460C4617464FF00008012026
:1040F00002F0C0F900F048F9304600F013F900F082
:1041000087F94FB12546E11704EB1161C1F3072090
:1041100000F008F900F07CF92546E11704EB116185
:104120000912A4EB0121C8B200F0FCF800F070F90C
:1041300000F02AF9711CC8B200F0F4F800F068F938
:10414000002000F009F8804600F03CF9002002F061
:1041500091F94046BDE8F08170B505460024264837
:10416000006820F040402449086008460068086064
:1041700000261FE000224FF480411F48FFF75EFC3D
:10418000042002F0ABF9012291031B48FFF756FC13
:10419000022002F0A3F96006040E4FF40041164815
:1041A000FFF744FC08B1601CC4B2022002F096F98B
:1041B000701CC6B2082EDDDB00224FF480410E4891
:1041C000FFF73CFC0C48006820F040400A490860BA
:1041D0000846006840F08040086000224FF400412B
:1041E0000548FFF72BFC15B9FFF74CFF01E0FFF77F
:1041F00005FF204670BD0000001402582DE9F0476D
:1042000080460C4615461E46DDF82090012002F03F
:1042100031F900F0B9F8404600F084F800F0F8F801
:1042200010B10120BDE8F087B9F1000F0CD027468E
:10423000E11704EB1161C1F3072000F073F800F0FF
:10424000E7F808B10120EDE72746E11704EB11611B
:104250000912A4EB0121C8B200F064F800F0D8F80C
:1042600008B10120DEE700F08FF808F10101C8B2C3
:1042700000F058F800F0CCF808B10120D2E70DE0CA
:10428000012E04D10020FFF767FF287003E0012012
:10429000FFF762FF2870701E86B26D1C002EEFD1F2
:1042A00000F090F8002002F0E5F80020BAE770B5C1
:1042B00006460C461546012002F0DCF800F064F8D2
:1042C000304600F02FF800F0A3F820B1002002F0F3
:1042D000D1F8012070BD00F057F8711CC8B200F091
:1042E00021F800F095F820B1002002F0C3F8012079
:1042F000F0E70DE0012D04D10020FFF72DFF207025
:1043000003E00120FFF728FF2070681E85B2641CBF
:10431000002DEFD100F056F8002002F0ABF800209D
:10432000D8E7000070B5044600224FF480411548DC
:10433000FFF784FB00251DE0022002F0CFF8E20920
:104340004FF400410F48FFF779FB6006040E02208E
:1043500002F0C4F8012291030A48FFF76FFB042022
:1043600002F0BCF800224FF480410648FFF766FBDC
:10437000681CC5B2082DDFDB0122D1030148FFF71D
:104380005DFB70BD0014025810B5012291030C486A
:10439000FFF754FB022002F0A1F80122D1030848E4
:1043A000FFF74CFB022002F099F800224FF4004185
:1043B0000348FFF743FB022002F090F810BD000015
:1043C0000014025810B5042002F088F800224FF4BF
:1043D00080410E48FFF732FB022002F07FF80022F6
:1043E0004FF400410948FFF729FB022002F076F85C
:1043F000012291030548FFF721FB022002F06EF82D
:104400000122D1030148FFF719FB10BD0014025827
:1044100010B50024022002F061F82748006820F05F
:10442000404025490860084600680860022002F004
:1044300055F8012291032048FFF700FB022002F00B
:104440004DF815E0601C84B2FA2C11DD1A480068A2
:1044500020F04040184908600846006840F080405D
:104460000860FFF7AFFF052002F01EF8012010BD25
:104470004FF400411048FFF7D9FA0028E2D102209A
:1044800002F02CF800224FF480410B48FFF7D6FAD7
:1044900000224FF400410848FFF7D0FA06480068B0
:1044A00020F04040044908600846006840F0804021
:1044B00008600020DBE70000001402582DE9F041FD
:1044C00080460C4616461F46012001F0D3FFFFF739
:1044D0005BFF4046FFF726FFFFF79AFF4FB12546E7
:1044E000E11704EB1161C1F30720FFF71BFFFFF792
:1044F0008FFF2546E11704EB11610912A4EB01219E
:10450000C8B2FFF70FFFFFF783FF3046FFF70AFF40
:10451000FFF77EFFFFF756FF052001F0C5FF0020E3
:1045200001F0A8FF0020BDE8F08170B505460C46FB
:10453000012001F09FFFFFF727FF2846FFF7F2FE5B
:10454000FFF766FF2046FFF7EDFEFFF761FF20B1A2
:10455000002001F08FFF012070BDFFF733FF052021
:1045600001F0A2FF002001F085FF0020F4E770B504
:1045700006460C461546012001F07CFFFFF704FFBC
:104580003046FFF7CFFEFFF743FF0DE02078FFF73F
:10459000C9FEFFF73DFF20B1002001F06BFF0120B5
:1045A00070BD681E85B2641C002DEFD1FFF70AFFB5
:1045B000052001F079FF002001F05CFF0020EFE70B
:1045C0001CB50F48006840F040000D49086001200C
:1045D0000090002302461C2101900A48FFF735FA9B
:1045E000012204210748FFF729FA0122102105487A
:1045F000FFF724FA012208210248FFF71FFA1CBD29
:10460000E04402580018025800B585B0062203A9FC
:10461000FA2001F0F9FD9DF811009DF810109DF8A9
:104620000F20CDE9002102909DF80E309DF80D205D
:104630009DF80C1002A0FCF735FA05B000BD000093
:10464000454550524F4D5F49443A25302E32583A35
:1046500025302E32583A25302E32583A25302E3217
:10466000583A25302E32583A25302E32580D0A004D
:104670002DE9FC470746884615461C464FF0320A8E
:104680004FF00009012F02D0022F04D101E0C02613
:1046900002E0C22600E000BF00BFB8F1000F2ED03C
:1046A000B8F1010F5BD105F00200C4F3032141EA28
:1046B00000108DF80000E0B28DF8010016E0022233
:1046C00069463046FFF753FF0A2001F0EDFE052250
:1046D0000DF102013046FFF7EAFD9DF804009DF858
:1046E000031040EA0129A14500D106E0BAF100001B
:1046F000AAF1010101F0FF0AE1D100BF2FE005F0AE
:104700000200602141EA40008DF80000C4F3071068
:104710008DF801002007000E8DF8020016E003223C
:1047200069463046FFF723FF0A2001F0BDFE05224F
:104730000DF102013046FFF7BAFD9DF806009DF825
:10474000051040EA0129A14500D106E0BAF10000B8
:10475000AAF1010101F0FF0AE1D100BF00BF00BFD3
:10476000BDE8FC872DE9F04105460E4617461C467C
:104770004FF0000840F6E440844202DB4FF6FF7839
:1047800011E000EE104AF8EE400A9FED0B1A80EEA1
:10479000810ADFED0A0A80EE201ABCEEC10A10EE93
:1047A000100A1FFA80F843463A4631462846FFF77A
:1047B0005FFFBDE8F081000000007A443333533AD4
:1047C00030B52DED048B83B00446002008EE100AAE
:1047D0009FED520AF0EE408A9FED500AB0EE409AEB
:1047E000012C02D0022C04D101E0C02502E0C22538
:1047F00000E000BF00BF052201A92846FFF757FDD2
:104800009DF808009DF8071040EA0120C0F30B0056
:1048100008EE100AB8EE480ADFED410A20EE200A41
:10482000F0EE408AB7EEE80A53EC102B21463DA08B
:10483000FCF738F99DF806009DF8051040EA0120C4
:10484000001108EE100AB8EE480ADFED350A20EE36
:10485000200AB0EE409AB7EEC90A53EC102B21465D
:1048600038A0FCF71FF99DF8040000F0060030B1F5
:10487000022809D004280CD0062814D10EE02146C5
:1048800038A0FCF70FF90EE021463EA0FCF70AF92C
:1048900009E0214642A0FCF705F904E0214648A0C2
:1048A000FCF700F900BF00BF9DF8040000F0C00055
:1048B00030B1402809D080280CD0C02814D10EE097
:1048C000214647A0FCF7EEF80EE021464FA0FCF78A
:1048D000E9F809E0214658A0FCF7E4F804E0214695
:1048E00060A0FCF7DFF800BF00BFF5EEC08AF1EE74
:1048F00010FA04D1B5EEC09AF1EE10FA09D02146B3
:1049000063A0FCF7CFF80023032219462046FFF7E7
:1049100029FF03B0BDEC048B30BD00000000000097
:104920003333533A636825645F656570726F6D5FFA
:10493000766F6C746167653A25302E346620560DAB
:104940000A000000636825645F4441435F6F75742B
:104950005F766F6C746167653A25302E3466205639
:104960000D0A0000636825645F6E6F726D616C20D4
:104970006D6F646520444143206F7574206E6F77BE
:104980000D0A0000636825645F314BA6B8206F6E86
:1049900020474E442C444143204F46460D0A000018
:1049A000636825645F3130304BA6B8206F6E2047B6
:1049B0004E442C444143204F46460D0A000000005F
:1049C000636825645F3530304BA6B8206F6E204792
:1049D0004E442C444143204F46460D0A000000003F
:1049E000636825645F656570726F6D2062757379A9
:1049F00020616E6420737570706F7420766C6F74B4
:104A0000616765206C6F770D0A000000636825649C
:104A10005F656570726F6D206275737920616E6479
:104A200020737570706F7420766C6F746167652089
:104A30006F6B0D0A00000000636825645F65657098
:104A4000726F6D20726561647920616E6420737588
:104A500070706F7420766C6F74616765206C6F770F
:104A60000D0A0000636825645F656570726F6D20D4
:104A7000726561647920616E6420737570706F7403
:104A800020766C6F74616765206F6B0D0A00000003
:104A9000636825645F7365742064656661756C7412
:104AA00020306D760D0A00000146002002E0490822
:104AB000421CD0B20129FAD17047000007480068B3
:104AC00020F480300549086004487030006820F008
:104AD00001000249703108607047000024ED00E0D9
:104AE00005200549086004487038006840F48030AB
:104AF000014970390860704794ED00E00FB500205F
:104B0000009001900290034602464FF480310390DA
:104B100000F05EF800200323CDE900300290034648
:104B2000012251040390080300F052F801200022F2
:104B30000323CDE901200093039013460222C10410
:104B40004FF0105000F044F8012000220323CDE97B
:104B5000012000930390134603224FF49021100785
:104B600000F036F8012000220323CDE90120009354
:104B700003901346042201044FF0605000F028F81F
:104B800000200323CDE900300290034605224FF0B8
:104B9000806103904FF0C04000F01AF8012000221D
:104BA0000323CDE9012000930390134606228106DA
:104BB000500700F00DF800200323CDE900300290EB
:104BC0000123072219070390C80000F001F80FBD68
:104BD0002DE9F04F05460C4616461F46DDE90A9AB8
:104BE000DDF8248000239B4604F01F0000B914B9AF
:104BF0000120BDE8F08F2046FFF756FF401E00F071
:104C0000FF0BFFF75BFF0E480660001D056043EADF
:104C1000077343EA086300BF43EA894343EA4A4310
:104C20000C9843EA004300BF43EA4B0343F00103FF
:104C3000034808300360FFF753FF0020D9E7000066
:104C400098ED00E02DE9F0410746884614461D46E0
:104C5000284600F033F8C5F1040007FA00F60F20EB
:104C6000284100EA0800064306F00F06E21704EBAD
:104C7000D2625211920002F1E022D2F800212146C4
:104C8000E31704EBD3635B11A4EB431C012303FA8A
:104C90000CF31A432046E31704EBD3635B119B002C
:104CA00003F1E023C3F800210348005D40EA061049
:104CB00001490855BDE8F08100E400E00146072302
:104CC00023EA01021202054B18684FF6FF03184051
:104CD000034B18431043014B186070470CED00E084
:104CE0000000FA054A0A52020243014B1A6070475B
:104CF00008ED00E010B5002204210A48FEF79EFEF0
:104D000009A0FBF7CFFE4FF47A7001F0CDFB0CA0A9
:104D1000FBF7C8FE4FF47A7001F0C6FB01F07EF994
:104D200010BD0000001802584D656D204163636599
:104D30007373204572726F7221210D0A000000000A
:104D4000536F6674205265736574696E672E2E2EDC
:104D50000D0A000010B5034600F05CFC501E0C4C20
:104D600020610C4860612046836100200BE000BF99
:104D7000074CA46804F00404002CF9D0044C20343F
:104D800024780C54401C9042F1D300F043FC10BD39
:104D900000500052030F180330B5034600F03AFCF0
:104DA000501E0C4C20610C4860612046836100203D
:104DB0000BE000BF074CA46804F00404002CF9D0F9
:104DC0000C5C044D20352C70401C9042F1D300F057
:104DD00021FC30BD00500052020F00031CB52548D5
:104DE000006840F00200234908600846006840F06F
:104DF000100008600846006840F400700860012058
:104E0000009000230246042101901B48FEF71DFE7E
:104E10000220012100230A46CDE900104FF4605121
:104E20001648FEF712FE0220012100230A46CDE9B2
:104E3000001003211248FEF708FE00224FF48051B3
:104E40000E48FEF7FBFD00224FF400610B48FEF711
:104E5000F5FD00224FF400510848FEF7EFFD002257
:104E600001210748FEF7EAFD002202210448FEF76F
:104E7000E5FD1CBDE044025800040258001402582D
:104E8000002402582DE9F04105460C4616461F46FF
:104E900046B1012211466C48FEF7D0FD6BA0FBF72E
:104EA00001FE07E0002201216748FEF7C7FD6BA065
:104EB000FBF7F8FD47B1012202216348FEF7BEFD72
:104EC0006AA0FBF7EFFD07E0002202215E48FEF733
:104ED000B5FD6AA0FBF7E6FD45B1012204216B4850
:104EE000FEF7ACFD6AA0FBF7DDFD07E00022042120
:104EF0006648FEF7A3FD6CA0FBF7D4FD082C17D283
:104F0000DFE804F00417293B4C5E6F8000224FF469
:104F100080516C48FEF792FD00224FF40061694811
:104F2000FEF78CFD00224FF400516648FEF786FD27
:104F300078E0012211036348FEF780FD00224FF460
:104F400000616048FEF77AFD00224FF400515D4891
:104F5000FEF774FD66E000224FF480515948FEF7D9
:104F60006DFD0122D1025748FEF768FD00224FF483
:104F700000515448FEF762FD54E0012211035148EC
:104F8000FEF75CFD0122D1024E48FEF757FD0022DC
:104F90004FF400514B48FEF751FD43E000224FF41F
:104FA00080514848FEF74AFD00224FF40061454811
:104FB000FEF744FD012251034248FEF73FFD31E078
:104FC000012211033F48FEF739FD00224FF4006132
:104FD0003C48FEF733FD012251033A48FEF72EFD0F
:104FE00020E000224FF480513648FEF727FD0122D1
:104FF000D1023448FEF722FD012251033148FEF769
:105000001DFD0FE0012211032E48FEF717FD0122BE
:10501000D1022C48FEF712FD012251032948FEF768
:105020000DFD00BF00BF04F0010127A0FBF73AFD12
:10503000C4F3400129A0FBF735FDC4F380012CA087
:10504000FBF730FDBDE8F08100240258494F5F5363
:1050500057375F41303A312C0D0A0000494F5F53FA
:1050600057375F41303A302C0D0A0000494F5F53EB
:1050700057375F41313A312C0D0A0000494F5F53D9
:1050800057375F41313A302C0D0A000000040258B6
:10509000494F5F5357365F494E3A312C76726566F9
:1050A0003D302E30760D0A00494F5F5357365F4929
:1050B0004E3A302C767265663D312E3235760D0AC9
:1050C0000000000000140258494F5F5047415F53F1
:1050D00045545F41303A25640D0A0000494F5F5046
:1050E00047415F5345545F41313A25640D0A000042
:1050F000494F5F5047415F5345545F41323A256401
:105100000D0A00001CB52248006840F0010020494B
:1051100008600846006840F48070086001200321A0
:1051200000230246CDE90010C1031A48FEF78DFCAA
:105130000120032100230246CDE900104FF46061F5
:105140001548FEF782FC0120032103460022CDE929
:1051500000104FF4E0411048FEF777FC01225102A5
:105160000D48FEF76BFC012291020B48FEF766FC2E
:105170000122D1020848FEF761FC00224FF40041F1
:105180000448FEF75BFC0A2001F08EF91CBD00000C
:10519000E0440258000002580020025810B54FF4B5
:1051A00080510E48FEF742FC044621460CA0FBF756
:1051B00079FC4FF400510948FEF738FC04462146BB
:1051C0000CA0FBF76FFC4FF480410448FEF72EFC67
:1051D000044621460CA0FBF765FC10BD00200258D8
:1051E000494F5F4348475F4445544543543A25641B
:1051F0000D0A0000494F5F50475F444554454354F2
:105200003A25640D0A000000494F5F5057525F4431
:1052100045544543543A25640D0A00002DE9F041F8
:1052200004460E4617461D46012C00DD0124012EC2
:1052300000DD0124012F00DD0124012D00DD012509
:1052400022464FF400711348FEF7F8FB32464FF444
:1052500080611048FEF7F2FB3A464FF400610D48BA
:10526000FEF7ECFB2A464FF400410B48FEF7E6FB45
:1052700021460AA0FBF716FC31460BA0FBF712FCF7
:1052800039460DA0FBF70EFC29460FA0FBF70AFCE0
:10529000BDE8F0810020025800000258706F775F6F
:1052A000656E3A25640D0A00706F775F656E313A5E
:1052B00025640D0A00000000706F775F656E323A5A
:1052C00025640D0A00000000707772656E5F6C69DE
:1052D0006E6B3A25640D0A0000B5014600F09AF99C
:1052E00041F48070024A506100F094F900BD000062
:1052F000005000523CB50024914D9248006840F0A7
:105300000200904908600846006840F020000860EC
:105310008C480C38006840F480408A490C39086099
:105320000120032100230222CDE900100421864838
:10533000FEF78BFB0120032100230222CDE90010A0
:1053400040218148FEF781FB012003210023022236
:10535000CDE900104FF470717C48FEF776FB09220E
:1053600002217948FEF742FB0A2206217648FEF721
:105370003DFB092206217548FEF738FB092207216B
:105380007248FEF733FB0A2208217048FEF72EFB15
:105390000A2209216D48FEF729FB6A486438006833
:1053A00040F480406749643908600846006820F48A
:1053B0008040086000BF62482038806800F020000C
:1053C0000028F8D162485E49203908606148486089
:1053D0000846006840F00100086000BF58482038C7
:1053E000806800F020000028F8D14FF49C705449E8
:1053F0002039486100BF52482038806800F0020020
:105400000028F8D04E482038C06840F002004C49CF
:105410002039C86000BF4A482038806800F020006A
:105420000028F8D14FF4837045492039486100BF06
:1054300043482038806800F002000028F8D0404837
:105440002038C06840F002003D492039C86000BFE4
:105450003B482038806800F020000028F8D13E4802
:105460003749203948610020086100BF344820389E
:10547000806800F004000028F8D030202870304800
:105480002038006840F004002D492039086000BF32
:105490002B482038806800F002000028F8D0284807
:1054A0002038C06840F0020025492039C86000BF9C
:1054B00023482038806800F020000028F8D100BF81
:1054C0001F482038806800F020000028F8D11C49CF
:1054D0002039C861EB2444F4407444F4406444F43B
:1054E000005444F4404400BF44F4C01444F04074F9
:1054F00044F04064084644611848006820F4803055
:105500001649086015487030006820F00100134902
:10551000703108600020091D08604FF01040091D1F
:1055200008600F48091D086005200C4970310860AB
:105530000A48006840F48030084908603CBD00001B
:1055400020500052E044025800040258001402584F
:105550001003000101041600C003000324ED00E065
:105560002D0003031CB500242748006840F002000A
:10557000254908600846006840F02000086022487D
:105580000C38006840F480401F490C390860012045
:10559000032100230222CDE9001081021B48FEF7FF
:1055A00054FA0120032100230222CDE900104FF418
:1055B000F8611748FEF749FA09220A211348FEF755
:1055C00015FA092207211248FEF710FA0A220821CB
:1055D0000F48FEF70BFA0A2209210D48FEF706FADA
:1055E00009220A210A48FEF701FA074864380068D0
:1055F00040F480400449643908600846006820F49B
:105600008040086000201CBDE0440258000402589D
:105610000014025800BF0348806800F020000028F2
:10562000F9D170470050005270B52DED028B06463F
:10563000002500249FED110AB0EE408A14210120BC
:10564000FEF7A0FA0546A5F5004400EE104AB8EEB4
:10565000C00ADFED0B0A20EE200AB0EE408AB7EE5A
:10566000C80A53EC102B07A0FBF71CFA2246294668
:105670000AA0FBF717FABDEC028B70BD000000001A
:105680000000A0384D43555F4144435F766F6C3A4C
:1056900025302E346620560D0A0000004D43555F1C
:1056A0004144435F7261773A25752C2074727565A9
:1056B0005F646966663A25640D0A000010B52DED39
:1056C000028B04469FED120AB0EE408A5CB111488D
:1056D00090ED000AB8EE400ADFED0F0A80EE201AC6
:1056E000B0EE418A0AE00D4890ED000AB8EE400A9B
:1056F000DFED090A80EE201AB0EE418AB7EEC80A43
:1057000053EC102B06A0FBF7CDF9BDEC028B10BDBE
:10571000000000001800002000401C461C00002073
:10572000485F505553453A25302E36666D730D0A45
:105730000000000010B50023234C236000BF00BF11
:1057400000BFBFF34F8F00BF00BF00BF231F18680B
:10575000C0F34E3100BFC0F3C90200BF43F6E0738F
:1057600003EA41134FF0404404EA82742343174C88
:10577000236000BF00BF131EA2F10102EED10B1E79
:10578000A1F10101E7D100BF00BF00BFBFF34F8F00
:1057900000BF00BF00BF0C4B703B1B6843F480335D
:1057A000094C703C236000BF00BF00BFBFF34F8FA8
:1057B00000BF00BF00BF00BF00BF00BFBFF36F8FBF
:1057C00000BF00BF00BF10BD84ED00E060EF00E04F
:1057D00000BF00BF00BFBFF34F8F00BF00BF00BFBF
:1057E00000BF00BF00BFBFF36F8F00BF00BF00BF8F
:1057F00000201449086000BF00BF00BFBFF34F8FF7
:1058000000BF00BF00BF00BF00BF00BFBFF36F8F6E
:1058100000BF00BF00BF0C48006840F400300A49D8
:10582000086000BF00BF00BFBFF34F8F00BF00BFC5
:1058300000BF00BF00BF00BFBFF36F8F00BF00BF3E
:1058400000BF704750EF00E014ED00E030B50A46AD
:105850000446202300BF00BF00BFBFF34F8F00BF2F
:1058600000BF00BF03E00B4D2C601C44D21A002A7D
:10587000F9DC00BF00BF00BFBFF34F8F00BF00BF08
:1058800000BF00BF00BF00BFBFF36F8F00BF00BFEE
:1058900000BF30BD5CEF00E01CB50024414800684B
:1058A00040F002003F4908600846006840F04000B0
:1058B00008603C481030006840F48050394910318D
:1058C00008600120022100230246CDE90010810278
:1058D0003548FEF7BAF80120022100230A46CDE937
:1058E00000104FF420613048FEF7AFF8012002218C
:1058F00000230A46CDE9001020212C48FEF7A5F828
:10590000052211462948FEF771F80522092126488B
:10591000FEF76CF805220B212348FEF767F82148B3
:105920009038006820F4E0401E499039086008462D
:10593000006808601B484838006840F480501949E6
:10594000483908600846006820F48050086018480C
:10595000006840F48050164908604FF0E0408860CD
:105960000846806840F007008860CC0400BF44F01F
:10597000806444F0007444F0807400BF44F48004F8
:1059800000BF00BF0846C460006D20F0010008653C
:105990000846006840F001000860FF2000F00AF8A7
:1059A0001CBD0000E04402580018025800040258D0
:1059B0000030014001460020154A126842F0010201
:1059C000134B1A601A46126842F400721A6000BF44
:1059D0000F4A526902F00202002AF9D00C4A203222
:1059E000117000BF0A4A526902F00102002AF9D080
:1059F000074A30321078064A926942F01802044B86
:105A00009A611A46126822F001021A60704700007B
:105A10000030014000F007000A49096821F0010147
:105A2000084A11601146896821F0E04191601146F1
:105A3000896841EA007191601146096841F00101ED
:105A400011607047003001401CB500243C480068DC
:105A500040F480703A49086039480830006840F4E2
:105A600080403749083108600120022100230246A6
:105A7000CDE9001001463348FDF7E7FF0120022180
:105A800000230A46CDE900100E212E48FDF7DDFF68
:105A9000052201212B48FDF7A9FF052202212948F3
:105AA000FDF7A4FF052203212648FDF79FFF2448A8
:105AB0009038006820F4E040214990390860084699
:105AC000006808601E485038006840F480401C4957
:105AD000503908600846006820F4804008601A4881
